{"contracts/BondingCurveMarket.sol":{"BondingCurveMarket":{"abi":[{"inputs":[{"internalType":"address","name":"_tokenAddress","type":"address"},{"internalType":"bytes32","name":"_sourceHash","type":"bytes32"},{"internalType":"address","name":"_curatorWallet","type":"address"},{"internalType":"address","name":"_feeDistributor","type":"address"},{"internalType":"address","name":"_owner","type":"address"}],"stateMutability":"nonpayable","type":"constructor"},{"inputs":[{"internalType":"address","name":"owner","type":"address"}],"name":"OwnableInvalidOwner","type":"error"},{"inputs":[{"internalType":"address","name":"account","type":"address"}],"name":"OwnableUnauthorizedAccount","type":"error"},{"inputs":[],"name":"ReentrancyGuardReentrantCall","type":"error"},{"anonymous":false,"inputs":[{"indexed":false,"internalType":"bool","name":"paused","type":"bool"}],"name":"MarketPaused","type":"event"},{"anonymous":false,"inputs":[{"indexed":true,"internalType":"address","name":"previousOwner","type":"address"},{"indexed":true,"internalType":"address","name":"newOwner","type":"address"}],"name":"OwnershipTransferred","type":"event"},{"anonymous":false,"inputs":[{"indexed":true,"internalType":"address","name":"trader","type":"address"},{"indexed":true,"internalType":"bool","name":"isBuy","type":"bool"},{"indexed":false,"internalType":"uint256","name":"bnbAmount","type":"uint256"},{"indexed":false,"internalType":"uint256","name":"tokenAmount","type":"uint256"},{"indexed":false,"internalType":"uint256","name":"currentPrice","type":"uint256"},{"indexed":false,"internalType":"uint256","name":"currentSupply","type":"uint256"}],"name":"TokenTraded","type":"event"},{"inputs":[],"name":"FEE_BASIS_POINTS","outputs":[{"internalType":"uint256","name":"","type":"uint256"}],"stateMutability":"view","type":"function"},{"inputs":[],"name":"INITIAL_PRICE","outputs":[{"internalType":"uint256","name":"","type":"uint256"}],"stateMutability":"view","type":"function"},{"inputs":[],"name":"PRICE_MULTIPLIER","outputs":[{"internalType":"uint256","name":"","type":"uint256"}],"stateMutability":"view","type":"function"},{"inputs":[{"internalType":"uint256","name":"tokenAmount","type":"uint256"},{"internalType":"uint256","name":"minTokensOut","type":"uint256"}],"name":"buy","outputs":[],"stateMutability":"payable","type":"function"},{"inputs":[],"name":"curatorWallet","outputs":[{"internalType":"address","name":"","type":"address"}],"stateMutability":"view","type":"function"},{"inputs":[],"name":"feeDistributor","outputs":[{"internalType":"address","name":"","type":"address"}],"stateMutability":"view","type":"function"},{"inputs":[{"internalType":"uint256","name":"currentSupply","type":"uint256"},{"internalType":"uint256","name":"tokenAmount","type":"uint256"}],"name":"getBuyQuote","outputs":[{"internalType":"uint256","name":"","type":"uint256"}],"stateMutability":"pure","type":"function"},{"inputs":[{"internalType":"uint256","name":"currentSupply","type":"uint256"},{"internalType":"uint256","name":"tokenAmount","type":"uint256"}],"name":"getSellQuote","outputs":[{"internalType":"uint256","name":"","type":"uint256"}],"stateMutability":"pure","type":"function"},{"inputs":[],"name":"owner","outputs":[{"internalType":"address","name":"","type":"address"}],"stateMutability":"view","type":"function"},{"inputs":[],"name":"paused","outputs":[{"internalType":"bool","name":"","type":"bool"}],"stateMutability":"view","type":"function"},{"inputs":[],"name":"renounceOwnership","outputs":[],"stateMutability":"nonpayable","type":"function"},{"inputs":[{"internalType":"uint256","name":"tokenAmount","type":"uint256"},{"internalType":"uint256","name":"minBNBOut","type":"uint256"}],"name":"sell","outputs":[],"stateMutability":"nonpayable","type":"function"},{"inputs":[{"internalType":"bool","name":"_paused","type":"bool"}],"name":"setPaused","outputs":[],"stateMutability":"nonpayable","type":"function"},{"inputs":[],"name":"sourceHash","outputs":[{"internalType":"bytes32","name":"","type":"bytes32"}],"stateMutability":"view","type":"function"},{"inputs":[],"name":"tokenAddress","outputs":[{"internalType":"address","name":"","type":"address"}],"stateMutability":"view","type":"function"},{"inputs":[{"internalType":"address","name":"newOwner","type":"address"}],"name":"transferOwnership","outputs":[],"stateMutability":"nonpayable","type":"function"},{"stateMutability":"payable","type":"receive"}],"evm":{"bytecode":{"linkReferences":{},"object":"60806040523480156200001157600080fd5b50604051620011123803806200111283398101604081905262000034916200014b565b806001600160a01b0381166200006457604051631e4fbdf760e01b81526000600482015260240160405180910390fd5b6200006f81620000de565b5060017f9b779b17422d0df92223018b32b4d1fa46e071723d6817e2486d003becc55f005550600180546001600160a01b039586166001600160a01b031991821617909155600393909355600280549285169284169290921790915560048054919093169116179055620001b2565b600080546001600160a01b038381166001600160a01b0319831681178455604051919092169283917f8be0079c531659141344cd1fd0a4f28419497f9722a3daafe3b4186f6b6457e09190a35050565b80516001600160a01b03811681146200014657600080fd5b919050565b600080600080600060a086880312156200016457600080fd5b6200016f866200012e565b94506020860151935062000186604087016200012e565b925062000196606087016200012e565b9150620001a6608087016200012e565b90509295509295909350565b610f5080620001c26000396000f3fe6080604052600436106100f75760003560e01c80639beb5bad1161008a578063a96b51ab11610059578063a96b51ab14610277578063d6febde814610297578063d79875eb146102aa578063f2fde38b146102ca57600080fd5b80639beb5bad1461020c5780639d76ea581461022c578063a363a2671461024c578063a525ad3c1461026257600080fd5b8063715018a6116100c6578063715018a6146101b95780637c5e2795146101405780638da5cb5b146101ce57806392f0ae4a146101ec57600080fd5b80630d43e8ad14610103578063113990b81461014057806316c38b3c146101665780635c975abb1461018857600080fd5b366100fe57005b600080fd5b34801561010f57600080fd5b50600454610123906001600160a01b031681565b6040516001600160a01b0390911681526020015b60405180910390f35b34801561014c57600080fd5b50610158633b9aca0081565b604051908152602001610137565b34801561017257600080fd5b50610186610181366004610d0a565b6102ea565b005b34801561019457600080fd5b506004546101a990600160a01b900460ff1681565b6040519015158152602001610137565b3480156101c557600080fd5b5061018661034a565b3480156101da57600080fd5b506000546001600160a01b0316610123565b3480156101f857600080fd5b50610158610207366004610d33565b61035e565b34801561021857600080fd5b50610158610227366004610d33565b6103ce565b34801561023857600080fd5b50600154610123906001600160a01b031681565b34801561025857600080fd5b5061015860035481565b34801561026e57600080fd5b50610158606481565b34801561028357600080fd5b50600254610123906001600160a01b031681565b6101866102a5366004610d33565b610455565b3480156102b657600080fd5b506101866102c5366004610d33565b610832565b3480156102d657600080fd5b506101866102e5366004610d55565b610c03565b6102f2610c41565b60048054821515600160a01b0260ff60a01b199091161790556040517fb11504260ecfcffb6ebdeb716f8ea67351cd54f23af3d6bbec03c41e93b86c459061033f90831515815260200190565b60405180910390a150565b610352610c41565b61035c6000610c6e565b565b600080670de0b6b3a7640000610375600285610d94565b61037f9086610db6565b61038d90633b9aca00610dc9565b6103979190610d94565b6103a590633b9aca00610db6565b9050670de0b6b3a76400006103ba8285610dc9565b6103c49190610d94565b9150505b92915050565b6000818310156104355760405162461bcd60e51b815260206004820152602760248201527f426f6e64696e6743757276654d61726b65743a20496e73756666696369656e7460448201526620737570706c7960c81b60648201526084015b60405180910390fd5b6000670de0b6b3a764000061044b600285610d94565b61037f9086610de0565b600454600160a01b900460ff161561047f5760405162461bcd60e51b815260040161042c90610df3565b610487610cbe565b600082116104a75760405162461bcd60e51b815260040161042c90610e39565b808210156104c75760405162461bcd60e51b815260040161042c90610e96565b600154604080516318160ddd60e01b815290516000926001600160a01b0316916318160ddd9160048083019260209291908290030181865afa158015610511573d6000803e3d6000fd5b505050506040513d601f19601f820116820180604052508101906105359190610ee1565b90506000610543828561035e565b90506000612710610555606484610dc9565b61055f9190610d94565b9050600061056d8284610db6565b9050803410156105d15760405162461bcd60e51b815260206004820152602960248201527f426f6e64696e6743757276654d61726b65743a20496e73756666696369656e7460448201526808109390881cd95b9d60ba1b606482015260840161042c565b6001546040516340c10f1960e01b8152336004820152602481018890526001600160a01b03909116906340c10f1990604401600060405180830381600087803b15801561061d57600080fd5b505af1158015610631573d6000803e3d6000fd5b5050505060008211801561064f57506004546001600160a01b031615155b156106c25760048054600354600254604051634bf199e960e01b8152938401919091526001600160a01b0390811660248401521690634bf199e99084906044016000604051808303818588803b1580156106a857600080fd5b505af11580156106bc573d6000803e3d6000fd5b50505050505b60006106ce8234610de0565b9050801561078157604051600090339083908381818185875af1925050503d8060008114610718576040519150601f19603f3d011682016040523d82523d6000602084013e61071d565b606091505b505090508061077f5760405162461bcd60e51b815260206004820152602860248201527f426f6e64696e6743757276654d61726b65743a2045786365737320726566756e604482015267190819985a5b195960c21b606482015260840161042c565b505b600061078d8887610db6565b90506000670de0b6b3a76400006107a883633b9aca00610dc9565b6107b29190610d94565b6107c090633b9aca00610db6565b60408051888152602081018c90529081018290526060810184905290915060019033907ffe532173d297f99183d706a16c0241e5ee6e9e5c58290b3d552ccf0f29119d939060800160405180910390a35050505050505061082e6001600080516020610efb83398151915255565b5050565b600454600160a01b900460ff161561085c5760405162461bcd60e51b815260040161042c90610df3565b610864610cbe565b600082116108845760405162461bcd60e51b815260040161042c90610e39565b600154604080516318160ddd60e01b815290516000926001600160a01b0316916318160ddd9160048083019260209291908290030181865afa1580156108ce573d6000803e3d6000fd5b505050506040513d601f19601f820116820180604052508101906108f29190610ee1565b90508281101561095c5760405162461bcd60e51b815260206004820152602f60248201527f426f6e64696e6743757276654d61726b65743a20496e73756666696369656e7460448201526e081cdd5c1c1b1e481d1bc81cd95b1b608a1b606482015260840161042c565b600061096882856103ce565b9050600061271061097a606484610dc9565b6109849190610d94565b905060006109928284610de0565b9050848110156109b45760405162461bcd60e51b815260040161042c90610e96565b600154604051632770a7eb60e21b8152336004820152602481018890526001600160a01b0390911690639dc29fac90604401600060405180830381600087803b158015610a0057600080fd5b505af1158015610a14573d6000803e3d6000fd5b50505050600082118015610a3257506004546001600160a01b031615155b15610aa55760048054600354600254604051634bf199e960e01b8152938401919091526001600160a01b0390811660248401521690634bf199e99084906044016000604051808303818588803b158015610a8b57600080fd5b505af1158015610a9f573d6000803e3d6000fd5b50505050505b8015610b5757604051600090339083908381818185875af1925050503d8060008114610aed576040519150601f19603f3d011682016040523d82523d6000602084013e610af2565b606091505b5050905080610b555760405162461bcd60e51b815260206004820152602960248201527f426f6e64696e6743757276654d61726b65743a20526566756e64207061796d656044820152681b9d0819985a5b195960ba1b606482015260840161042c565b505b6000610b638786610de0565b90506000670de0b6b3a7640000610b7e83633b9aca00610dc9565b610b889190610d94565b610b9690633b9aca00610db6565b60408051858152602081018b90529081018290526060810184905290915060009033907ffe532173d297f99183d706a16c0241e5ee6e9e5c58290b3d552ccf0f29119d939060800160405180910390a350505050505061082e6001600080516020610efb83398151915255565b610c0b610c41565b6001600160a01b038116610c3557604051631e4fbdf760e01b81526000600482015260240161042c565b610c3e81610c6e565b50565b6000546001600160a01b0316331461035c5760405163118cdaa760e01b815233600482015260240161042c565b600080546001600160a01b038381166001600160a01b0319831681178455604051919092169283917f8be0079c531659141344cd1fd0a4f28419497f9722a3daafe3b4186f6b6457e09190a35050565b610cc6610cda565b6002600080516020610efb83398151915255565b600080516020610efb8339815191525460020361035c57604051633ee5aeb560e01b815260040160405180910390fd5b600060208284031215610d1c57600080fd5b81358015158114610d2c57600080fd5b9392505050565b60008060408385031215610d4657600080fd5b50508035926020909101359150565b600060208284031215610d6757600080fd5b81356001600160a01b0381168114610d2c57600080fd5b634e487b7160e01b600052601160045260246000fd5b600082610db157634e487b7160e01b600052601260045260246000fd5b500490565b808201808211156103c8576103c8610d7e565b80820281158282048414176103c8576103c8610d7e565b818103818111156103c8576103c8610d7e565b60208082526026908201527f426f6e64696e6743757276654d61726b65743a20436f6e7472616374206973206040820152651c185d5cd95960d21b606082015260800190565b6020808252603a908201527f426f6e64696e6743757276654d61726b65743a20546f6b656e20616d6f756e7460408201527f206d7573742062652067726561746572207468616e207a65726f000000000000606082015260800190565b6020808252602b908201527f426f6e64696e6743757276654d61726b65743a20536c697070616765206c696d60408201526a1a5d08195e18d95959195960aa1b606082015260800190565b600060208284031215610ef357600080fd5b505191905056fe9b779b17422d0df92223018b32b4d1fa46e071723d6817e2486d003becc55f00a26469706673582212205e087c1049427f156a49c4f67740910cd150b6f7b067803e13087fdfb3d5a74364736f6c63430008140033","opcodes":"PUSH1 0x80 PUSH1 0x40 MSTORE CALLVALUE DUP1 ISZERO PUSH3 0x11 JUMPI PUSH1 0x0 DUP1 REVERT JUMPDEST POP PUSH1 0x40 MLOAD PUSH3 0x1112 CODESIZE SUB DUP1 PUSH3 0x1112 DUP4 CODECOPY DUP2 ADD PUSH1 0x40 DUP2 SWAP1 MSTORE PUSH3 0x34 SWAP2 PUSH3 0x14B JUMP JUMPDEST DUP1 PUSH1 0x1 PUSH1 0x1 PUSH1 0xA0 SHL SUB DUP2 AND PUSH3 0x64 JUMPI PUSH1 0x40 MLOAD PUSH4 0x1E4FBDF7 PUSH1 0xE0 SHL DUP2 MSTORE PUSH1 0x0 PUSH1 0x4 DUP3 ADD MSTORE PUSH1 0x24 ADD PUSH1 0x40 MLOAD DUP1 SWAP2 SUB SWAP1 REVERT JUMPDEST PUSH3 0x6F DUP2 PUSH3 0xDE JUMP JUMPDEST POP PUSH1 0x1 PUSH32 0x9B779B17422D0DF92223018B32B4D1FA46E071723D6817E2486D003BECC55F00 SSTORE POP PUSH1 0x1 DUP1 SLOAD PUSH1 0x1 PUSH1 0x1 PUSH1 0xA0 SHL SUB SWAP6 DUP7 AND PUSH1 0x1 PUSH1 0x1 PUSH1 0xA0 SHL SUB NOT SWAP2 DUP3 AND OR SWAP1 SWAP2 SSTORE PUSH1 0x3 SWAP4 SWAP1 SWAP4 SSTORE PUSH1 0x2 DUP1 SLOAD SWAP3 DUP6 AND SWAP3 DUP5 AND SWAP3 SWAP1 SWAP3 OR SWAP1 SWAP2 SSTORE PUSH1 0x4 DUP1 SLOAD SWAP2 SWAP1 SWAP4 AND SWAP2 AND OR SWAP1 SSTORE PUSH3 0x1B2 JUMP JUMPDEST PUSH1 0x0 DUP1 SLOAD PUSH1 0x1 PUSH1 0x1 PUSH1 0xA0 SHL SUB DUP4 DUP2 AND PUSH1 0x1 PUSH1 0x1 PUSH1 0xA0 SHL SUB NOT DUP4 AND DUP2 OR DUP5 SSTORE PUSH1 0x40 MLOAD SWAP2 SWAP1 SWAP3 AND SWAP3 DUP4 SWAP2 PUSH32 0x8BE0079C531659141344CD1FD0A4F28419497F9722A3DAAFE3B4186F6B6457E0 SWAP2 SWAP1 LOG3 POP POP JUMP JUMPDEST DUP1 MLOAD PUSH1 0x1 PUSH1 0x1 PUSH1 0xA0 SHL SUB DUP2 AND DUP2 EQ PUSH3 0x146 JUMPI PUSH1 0x0 DUP1 REVERT JUMPDEST SWAP2 SWAP1 POP JUMP JUMPDEST PUSH1 0x0 DUP1 PUSH1 0x0 DUP1 PUSH1 0x0 PUSH1 0xA0 DUP7 DUP9 SUB SLT ISZERO PUSH3 0x164 JUMPI PUSH1 0x0 DUP1 REVERT JUMPDEST PUSH3 0x16F DUP7 PUSH3 0x12E JUMP JUMPDEST SWAP5 POP PUSH1 0x20 DUP7 ADD MLOAD SWAP4 POP PUSH3 0x186 PUSH1 0x40 DUP8 ADD PUSH3 0x12E JUMP JUMPDEST SWAP3 POP PUSH3 0x196 PUSH1 0x60 DUP8 ADD PUSH3 0x12E JUMP JUMPDEST SWAP2 POP PUSH3 0x1A6 PUSH1 0x80 DUP8 ADD PUSH3 0x12E JUMP JUMPDEST SWAP1 POP SWAP3 SWAP6 POP SWAP3 SWAP6 SWAP1 SWAP4 POP JUMP JUMPDEST PUSH2 0xF50 DUP1 PUSH3 0x1C2 PUSH1 0x0 CODECOPY PUSH1 0x0 RETURN INVALID PUSH1 0x80 PUSH1 0x40 MSTORE PUSH1 0x4 CALLDATASIZE LT PUSH2 0xF7 JUMPI PUSH1 0x0 CALLDATALOAD PUSH1 0xE0 SHR DUP1 PUSH4 0x9BEB5BAD GT PUSH2 0x8A JUMPI DUP1 PUSH4 0xA96B51AB GT PUSH2 0x59 JUMPI DUP1 PUSH4 0xA96B51AB EQ PUSH2 0x277 JUMPI DUP1 PUSH4 0xD6FEBDE8 EQ PUSH2 0x297 JUMPI DUP1 PUSH4 0xD79875EB EQ PUSH2 0x2AA JUMPI DUP1 PUSH4 0xF2FDE38B EQ PUSH2 0x2CA JUMPI PUSH1 0x0 DUP1 REVERT JUMPDEST DUP1 PUSH4 0x9BEB5BAD EQ PUSH2 0x20C JUMPI DUP1 PUSH4 0x9D76EA58 EQ PUSH2 0x22C JUMPI DUP1 PUSH4 0xA363A267 EQ PUSH2 0x24C JUMPI DUP1 PUSH4 0xA525AD3C EQ PUSH2 0x262 JUMPI PUSH1 0x0 DUP1 REVERT JUMPDEST DUP1 PUSH4 0x715018A6 GT PUSH2 0xC6 JUMPI DUP1 PUSH4 0x715018A6 EQ PUSH2 0x1B9 JUMPI DUP1 PUSH4 0x7C5E2795 EQ PUSH2 0x140 JUMPI DUP1 PUSH4 0x8DA5CB5B EQ PUSH2 0x1CE JUMPI DUP1 PUSH4 0x92F0AE4A EQ PUSH2 0x1EC JUMPI PUSH1 0x0 DUP1 REVERT JUMPDEST DUP1 PUSH4 0xD43E8AD EQ PUSH2 0x103 JUMPI DUP1 PUSH4 0x113990B8 EQ PUSH2 0x140 JUMPI DUP1 PUSH4 0x16C38B3C EQ PUSH2 0x166 JUMPI DUP1 PUSH4 0x5C975ABB EQ PUSH2 0x188 JUMPI PUSH1 0x0 DUP1 REVERT JUMPDEST CALLDATASIZE PUSH2 0xFE JUMPI STOP JUMPDEST PUSH1 0x0 DUP1 REVERT JUMPDEST CALLVALUE DUP1 ISZERO PUSH2 0x10F JUMPI PUSH1 0x0 DUP1 REVERT JUMPDEST POP PUSH1 0x4 SLOAD PUSH2 0x123 SWAP1 PUSH1 0x1 PUSH1 0x1 PUSH1 0xA0 SHL SUB AND DUP2 JUMP JUMPDEST PUSH1 0x40 MLOAD PUSH1 0x1 PUSH1 0x1 PUSH1 0xA0 SHL SUB SWAP1 SWAP2 AND DUP2 MSTORE PUSH1 0x20 ADD JUMPDEST PUSH1 0x40 MLOAD DUP1 SWAP2 SUB SWAP1 RETURN JUMPDEST CALLVALUE DUP1 ISZERO PUSH2 0x14C JUMPI PUSH1 0x0 DUP1 REVERT JUMPDEST POP PUSH2 0x158 PUSH4 0x3B9ACA00 DUP2 JUMP JUMPDEST PUSH1 0x40 MLOAD SWAP1 DUP2 MSTORE PUSH1 0x20 ADD PUSH2 0x137 JUMP JUMPDEST CALLVALUE DUP1 ISZERO PUSH2 0x172 JUMPI PUSH1 0x0 DUP1 REVERT JUMPDEST POP PUSH2 0x186 PUSH2 0x181 CALLDATASIZE PUSH1 0x4 PUSH2 0xD0A JUMP JUMPDEST PUSH2 0x2EA JUMP JUMPDEST STOP JUMPDEST CALLVALUE DUP1 ISZERO PUSH2 0x194 JUMPI PUSH1 0x0 DUP1 REVERT JUMPDEST POP PUSH1 0x4 SLOAD PUSH2 0x1A9 SWAP1 PUSH1 0x1 PUSH1 0xA0 SHL SWAP1 DIV PUSH1 0xFF AND DUP2 JUMP JUMPDEST PUSH1 0x40 MLOAD SWAP1 ISZERO ISZERO DUP2 MSTORE PUSH1 0x20 ADD PUSH2 0x137 JUMP JUMPDEST CALLVALUE DUP1 ISZERO PUSH2 0x1C5 JUMPI PUSH1 0x0 DUP1 REVERT JUMPDEST POP PUSH2 0x186 PUSH2 0x34A JUMP JUMPDEST CALLVALUE DUP1 ISZERO PUSH2 0x1DA JUMPI PUSH1 0x0 DUP1 REVERT JUMPDEST POP PUSH1 0x0 SLOAD PUSH1 0x1 PUSH1 0x1 PUSH1 0xA0 SHL SUB AND PUSH2 0x123 JUMP JUMPDEST CALLVALUE DUP1 ISZERO PUSH2 0x1F8 JUMPI PUSH1 0x0 DUP1 REVERT JUMPDEST POP PUSH2 0x158 PUSH2 0x207 CALLDATASIZE PUSH1 0x4 PUSH2 0xD33 JUMP JUMPDEST PUSH2 0x35E JUMP JUMPDEST CALLVALUE DUP1 ISZERO PUSH2 0x218 JUMPI PUSH1 0x0 DUP1 REVERT JUMPDEST POP PUSH2 0x158 PUSH2 0x227 CALLDATASIZE PUSH1 0x4 PUSH2 0xD33 JUMP JUMPDEST PUSH2 0x3CE JUMP JUMPDEST CALLVALUE DUP1 ISZERO PUSH2 0x238 JUMPI PUSH1 0x0 DUP1 REVERT JUMPDEST POP PUSH1 0x1 SLOAD PUSH2 0x123 SWAP1 PUSH1 0x1 PUSH1 0x1 PUSH1 0xA0 SHL SUB AND DUP2 JUMP JUMPDEST CALLVALUE DUP1 ISZERO PUSH2 0x258 JUMPI PUSH1 0x0 DUP1 REVERT JUMPDEST POP PUSH2 0x158 PUSH1 0x3 SLOAD DUP2 JUMP JUMPDEST CALLVALUE DUP1 ISZERO PUSH2 0x26E JUMPI PUSH1 0x0 DUP1 REVERT JUMPDEST POP PUSH2 0x158 PUSH1 0x64 DUP2 JUMP JUMPDEST CALLVALUE DUP1 ISZERO PUSH2 0x283 JUMPI PUSH1 0x0 DUP1 REVERT JUMPDEST POP PUSH1 0x2 SLOAD PUSH2 0x123 SWAP1 PUSH1 0x1 PUSH1 0x1 PUSH1 0xA0 SHL SUB AND DUP2 JUMP JUMPDEST PUSH2 0x186 PUSH2 0x2A5 CALLDATASIZE PUSH1 0x4 PUSH2 0xD33 JUMP JUMPDEST PUSH2 0x455 JUMP JUMPDEST CALLVALUE DUP1 ISZERO PUSH2 0x2B6 JUMPI PUSH1 0x0 DUP1 REVERT JUMPDEST POP PUSH2 0x186 PUSH2 0x2C5 CALLDATASIZE PUSH1 0x4 PUSH2 0xD33 JUMP JUMPDEST PUSH2 0x832 JUMP JUMPDEST CALLVALUE DUP1 ISZERO PUSH2 0x2D6 JUMPI PUSH1 0x0 DUP1 REVERT JUMPDEST POP PUSH2 0x186 PUSH2 0x2E5 CALLDATASIZE PUSH1 0x4 PUSH2 0xD55 JUMP JUMPDEST PUSH2 0xC03 JUMP JUMPDEST PUSH2 0x2F2 PUSH2 0xC41 JUMP JUMPDEST PUSH1 0x4 DUP1 SLOAD DUP3 ISZERO ISZERO PUSH1 0x1 PUSH1 0xA0 SHL MUL PUSH1 0xFF PUSH1 0xA0 SHL NOT SWAP1 SWAP2 AND OR SWAP1 SSTORE PUSH1 0x40 MLOAD PUSH32 0xB11504260ECFCFFB6EBDEB716F8EA67351CD54F23AF3D6BBEC03C41E93B86C45 SWAP1 PUSH2 0x33F SWAP1 DUP4 ISZERO ISZERO DUP2 MSTORE PUSH1 0x20 ADD SWAP1 JUMP JUMPDEST PUSH1 0x40 MLOAD DUP1 SWAP2 SUB SWAP1 LOG1 POP JUMP JUMPDEST PUSH2 0x352 PUSH2 0xC41 JUMP JUMPDEST PUSH2 0x35C PUSH1 0x0 PUSH2 0xC6E JUMP JUMPDEST JUMP JUMPDEST PUSH1 0x0 DUP1 PUSH8 0xDE0B6B3A7640000 PUSH2 0x375 PUSH1 0x2 DUP6 PUSH2 0xD94 JUMP JUMPDEST PUSH2 0x37F SWAP1 DUP7 PUSH2 0xDB6 JUMP JUMPDEST PUSH2 0x38D SWAP1 PUSH4 0x3B9ACA00 PUSH2 0xDC9 JUMP JUMPDEST PUSH2 0x397 SWAP2 SWAP1 PUSH2 0xD94 JUMP JUMPDEST PUSH2 0x3A5 SWAP1 PUSH4 0x3B9ACA00 PUSH2 0xDB6 JUMP JUMPDEST SWAP1 POP PUSH8 0xDE0B6B3A7640000 PUSH2 0x3BA DUP3 DUP6 PUSH2 0xDC9 JUMP JUMPDEST PUSH2 0x3C4 SWAP2 SWAP1 PUSH2 0xD94 JUMP JUMPDEST SWAP2 POP POP JUMPDEST SWAP3 SWAP2 POP POP JUMP JUMPDEST PUSH1 0x0 DUP2 DUP4 LT ISZERO PUSH2 0x435 JUMPI PUSH1 0x40 MLOAD PUSH3 0x461BCD PUSH1 0xE5 SHL DUP2 MSTORE PUSH1 0x20 PUSH1 0x4 DUP3 ADD MSTORE PUSH1 0x27 PUSH1 0x24 DUP3 ADD MSTORE PUSH32 0x426F6E64696E6743757276654D61726B65743A20496E73756666696369656E74 PUSH1 0x44 DUP3 ADD MSTORE PUSH7 0x20737570706C79 PUSH1 0xC8 SHL PUSH1 0x64 DUP3 ADD MSTORE PUSH1 0x84 ADD JUMPDEST PUSH1 0x40 MLOAD DUP1 SWAP2 SUB SWAP1 REVERT JUMPDEST PUSH1 0x0 PUSH8 0xDE0B6B3A7640000 PUSH2 0x44B PUSH1 0x2 DUP6 PUSH2 0xD94 JUMP JUMPDEST PUSH2 0x37F SWAP1 DUP7 PUSH2 0xDE0 JUMP JUMPDEST PUSH1 0x4 SLOAD PUSH1 0x1 PUSH1 0xA0 SHL SWAP1 DIV PUSH1 0xFF AND ISZERO PUSH2 0x47F JUMPI PUSH1 0x40 MLOAD PUSH3 0x461BCD PUSH1 0xE5 SHL DUP2 MSTORE PUSH1 0x4 ADD PUSH2 0x42C SWAP1 PUSH2 0xDF3 JUMP JUMPDEST PUSH2 0x487 PUSH2 0xCBE JUMP JUMPDEST PUSH1 0x0 DUP3 GT PUSH2 0x4A7 JUMPI PUSH1 0x40 MLOAD PUSH3 0x461BCD PUSH1 0xE5 SHL DUP2 MSTORE PUSH1 0x4 ADD PUSH2 0x42C SWAP1 PUSH2 0xE39 JUMP JUMPDEST DUP1 DUP3 LT ISZERO PUSH2 0x4C7 JUMPI PUSH1 0x40 MLOAD PUSH3 0x461BCD PUSH1 0xE5 SHL DUP2 MSTORE PUSH1 0x4 ADD PUSH2 0x42C SWAP1 PUSH2 0xE96 JUMP JUMPDEST PUSH1 0x1 SLOAD PUSH1 0x40 DUP1 MLOAD PUSH4 0x18160DDD PUSH1 0xE0 SHL DUP2 MSTORE SWAP1 MLOAD PUSH1 0x0 SWAP3 PUSH1 0x1 PUSH1 0x1 PUSH1 0xA0 SHL SUB AND SWAP2 PUSH4 0x18160DDD SWAP2 PUSH1 0x4 DUP1 DUP4 ADD SWAP3 PUSH1 0x20 SWAP3 SWAP2 SWAP1 DUP3 SWAP1 SUB ADD DUP2 DUP7 GAS STATICCALL ISZERO DUP1 ISZERO PUSH2 0x511 JUMPI RETURNDATASIZE PUSH1 0x0 DUP1 RETURNDATACOPY RETURNDATASIZE PUSH1 0x0 REVERT JUMPDEST POP POP POP POP PUSH1 0x40 MLOAD RETURNDATASIZE PUSH1 0x1F NOT PUSH1 0x1F DUP3 ADD AND DUP3 ADD DUP1 PUSH1 0x40 MSTORE POP DUP2 ADD SWAP1 PUSH2 0x535 SWAP2 SWAP1 PUSH2 0xEE1 JUMP JUMPDEST SWAP1 POP PUSH1 0x0 PUSH2 0x543 DUP3 DUP6 PUSH2 0x35E JUMP JUMPDEST SWAP1 POP PUSH1 0x0 PUSH2 0x2710 PUSH2 0x555 PUSH1 0x64 DUP5 PUSH2 0xDC9 JUMP JUMPDEST PUSH2 0x55F SWAP2 SWAP1 PUSH2 0xD94 JUMP JUMPDEST SWAP1 POP PUSH1 0x0 PUSH2 0x56D DUP3 DUP5 PUSH2 0xDB6 JUMP JUMPDEST SWAP1 POP DUP1 CALLVALUE LT ISZERO PUSH2 0x5D1 JUMPI PUSH1 0x40 MLOAD PUSH3 0x461BCD PUSH1 0xE5 SHL DUP2 MSTORE PUSH1 0x20 PUSH1 0x4 DUP3 ADD MSTORE PUSH1 0x29 PUSH1 0x24 DUP3 ADD MSTORE PUSH32 0x426F6E64696E6743757276654D61726B65743A20496E73756666696369656E74 PUSH1 0x44 DUP3 ADD MSTORE PUSH9 0x8109390881CD95B9D PUSH1 0xBA SHL PUSH1 0x64 DUP3 ADD MSTORE PUSH1 0x84 ADD PUSH2 0x42C JUMP JUMPDEST PUSH1 0x1 SLOAD PUSH1 0x40 MLOAD PUSH4 0x40C10F19 PUSH1 0xE0 SHL DUP2 MSTORE CALLER PUSH1 0x4 DUP3 ADD MSTORE PUSH1 0x24 DUP2 ADD DUP9 SWAP1 MSTORE PUSH1 0x1 PUSH1 0x1 PUSH1 0xA0 SHL SUB SWAP1 SWAP2 AND SWAP1 PUSH4 0x40C10F19 SWAP1 PUSH1 0x44 ADD PUSH1 0x0 PUSH1 0x40 MLOAD DUP1 DUP4 SUB DUP2 PUSH1 0x0 DUP8 DUP1 EXTCODESIZE ISZERO DUP1 ISZERO PUSH2 0x61D JUMPI PUSH1 0x0 DUP1 REVERT JUMPDEST POP GAS CALL ISZERO DUP1 ISZERO PUSH2 0x631 JUMPI RETURNDATASIZE PUSH1 0x0 DUP1 RETURNDATACOPY RETURNDATASIZE PUSH1 0x0 REVERT JUMPDEST POP POP POP POP PUSH1 0x0 DUP3 GT DUP1 ISZERO PUSH2 0x64F JUMPI POP PUSH1 0x4 SLOAD PUSH1 0x1 PUSH1 0x1 PUSH1 0xA0 SHL SUB AND ISZERO ISZERO JUMPDEST ISZERO PUSH2 0x6C2 JUMPI PUSH1 0x4 DUP1 SLOAD PUSH1 0x3 SLOAD PUSH1 0x2 SLOAD PUSH1 0x40 MLOAD PUSH4 0x4BF199E9 PUSH1 0xE0 SHL DUP2 MSTORE SWAP4 DUP5 ADD SWAP2 SWAP1 SWAP2 MSTORE PUSH1 0x1 PUSH1 0x1 PUSH1 0xA0 SHL SUB SWAP1 DUP2 AND PUSH1 0x24 DUP5 ADD MSTORE AND SWAP1 PUSH4 0x4BF199E9 SWAP1 DUP5 SWAP1 PUSH1 0x44 ADD PUSH1 0x0 PUSH1 0x40 MLOAD DUP1 DUP4 SUB DUP2 DUP6 DUP9 DUP1 EXTCODESIZE ISZERO DUP1 ISZERO PUSH2 0x6A8 JUMPI PUSH1 0x0 DUP1 REVERT JUMPDEST POP GAS CALL ISZERO DUP1 ISZERO PUSH2 0x6BC JUMPI RETURNDATASIZE PUSH1 0x0 DUP1 RETURNDATACOPY RETURNDATASIZE PUSH1 0x0 REVERT JUMPDEST POP POP POP POP POP JUMPDEST PUSH1 0x0 PUSH2 0x6CE DUP3 CALLVALUE PUSH2 0xDE0 JUMP JUMPDEST SWAP1 POP DUP1 ISZERO PUSH2 0x781 JUMPI PUSH1 0x40 MLOAD PUSH1 0x0 SWAP1 CALLER SWAP1 DUP4 SWAP1 DUP4 DUP2 DUP2 DUP2 DUP6 DUP8 GAS CALL SWAP3 POP POP POP RETURNDATASIZE DUP1 PUSH1 0x0 DUP2 EQ PUSH2 0x718 JUMPI PUSH1 0x40 MLOAD SWAP2 POP PUSH1 0x1F NOT PUSH1 0x3F RETURNDATASIZE ADD AND DUP3 ADD PUSH1 0x40 MSTORE RETURNDATASIZE DUP3 MSTORE RETURNDATASIZE PUSH1 0x0 PUSH1 0x20 DUP5 ADD RETURNDATACOPY PUSH2 0x71D JUMP JUMPDEST PUSH1 0x60 SWAP2 POP JUMPDEST POP POP SWAP1 POP DUP1 PUSH2 0x77F JUMPI PUSH1 0x40 MLOAD PUSH3 0x461BCD PUSH1 0xE5 SHL DUP2 MSTORE PUSH1 0x20 PUSH1 0x4 DUP3 ADD MSTORE PUSH1 0x28 PUSH1 0x24 DUP3 ADD MSTORE PUSH32 0x426F6E64696E6743757276654D61726B65743A2045786365737320726566756E PUSH1 0x44 DUP3 ADD MSTORE PUSH8 0x190819985A5B1959 PUSH1 0xC2 SHL PUSH1 0x64 DUP3 ADD MSTORE PUSH1 0x84 ADD PUSH2 0x42C JUMP JUMPDEST POP JUMPDEST PUSH1 0x0 PUSH2 0x78D DUP9 DUP8 PUSH2 0xDB6 JUMP JUMPDEST SWAP1 POP PUSH1 0x0 PUSH8 0xDE0B6B3A7640000 PUSH2 0x7A8 DUP4 PUSH4 0x3B9ACA00 PUSH2 0xDC9 JUMP JUMPDEST PUSH2 0x7B2 SWAP2 SWAP1 PUSH2 0xD94 JUMP JUMPDEST PUSH2 0x7C0 SWAP1 PUSH4 0x3B9ACA00 PUSH2 0xDB6 JUMP JUMPDEST PUSH1 0x40 DUP1 MLOAD DUP9 DUP2 MSTORE PUSH1 0x20 DUP2 ADD DUP13 SWAP1 MSTORE SWAP1 DUP2 ADD DUP3 SWAP1 MSTORE PUSH1 0x60 DUP2 ADD DUP5 SWAP1 MSTORE SWAP1 SWAP2 POP PUSH1 0x1 SWAP1 CALLER SWAP1 PUSH32 0xFE532173D297F99183D706A16C0241E5EE6E9E5C58290B3D552CCF0F29119D93 SWAP1 PUSH1 0x80 ADD PUSH1 0x40 MLOAD DUP1 SWAP2 SUB SWAP1 LOG3 POP POP POP POP POP POP POP PUSH2 0x82E PUSH1 0x1 PUSH1 0x0 DUP1 MLOAD PUSH1 0x20 PUSH2 0xEFB DUP4 CODECOPY DUP2 MLOAD SWAP2 MSTORE SSTORE JUMP JUMPDEST POP POP JUMP JUMPDEST PUSH1 0x4 SLOAD PUSH1 0x1 PUSH1 0xA0 SHL SWAP1 DIV PUSH1 0xFF AND ISZERO PUSH2 0x85C JUMPI PUSH1 0x40 MLOAD PUSH3 0x461BCD PUSH1 0xE5 SHL DUP2 MSTORE PUSH1 0x4 ADD PUSH2 0x42C SWAP1 PUSH2 0xDF3 JUMP JUMPDEST PUSH2 0x864 PUSH2 0xCBE JUMP JUMPDEST PUSH1 0x0 DUP3 GT PUSH2 0x884 JUMPI PUSH1 0x40 MLOAD PUSH3 0x461BCD PUSH1 0xE5 SHL DUP2 MSTORE PUSH1 0x4 ADD PUSH2 0x42C SWAP1 PUSH2 0xE39 JUMP JUMPDEST PUSH1 0x1 SLOAD PUSH1 0x40 DUP1 MLOAD PUSH4 0x18160DDD PUSH1 0xE0 SHL DUP2 MSTORE SWAP1 MLOAD PUSH1 0x0 SWAP3 PUSH1 0x1 PUSH1 0x1 PUSH1 0xA0 SHL SUB AND SWAP2 PUSH4 0x18160DDD SWAP2 PUSH1 0x4 DUP1 DUP4 ADD SWAP3 PUSH1 0x20 SWAP3 SWAP2 SWAP1 DUP3 SWAP1 SUB ADD DUP2 DUP7 GAS STATICCALL ISZERO DUP1 ISZERO PUSH2 0x8CE JUMPI RETURNDATASIZE PUSH1 0x0 DUP1 RETURNDATACOPY RETURNDATASIZE PUSH1 0x0 REVERT JUMPDEST POP POP POP POP PUSH1 0x40 MLOAD RETURNDATASIZE PUSH1 0x1F NOT PUSH1 0x1F DUP3 ADD AND DUP3 ADD DUP1 PUSH1 0x40 MSTORE POP DUP2 ADD SWAP1 PUSH2 0x8F2 SWAP2 SWAP1 PUSH2 0xEE1 JUMP JUMPDEST SWAP1 POP DUP3 DUP2 LT ISZERO PUSH2 0x95C JUMPI PUSH1 0x40 MLOAD PUSH3 0x461BCD PUSH1 0xE5 SHL DUP2 MSTORE PUSH1 0x20 PUSH1 0x4 DUP3 ADD MSTORE PUSH1 0x2F PUSH1 0x24 DUP3 ADD MSTORE PUSH32 0x426F6E64696E6743757276654D61726B65743A20496E73756666696369656E74 PUSH1 0x44 DUP3 ADD MSTORE PUSH15 0x81CDD5C1C1B1E481D1BC81CD95B1B PUSH1 0x8A SHL PUSH1 0x64 DUP3 ADD MSTORE PUSH1 0x84 ADD PUSH2 0x42C JUMP JUMPDEST PUSH1 0x0 PUSH2 0x968 DUP3 DUP6 PUSH2 0x3CE JUMP JUMPDEST SWAP1 POP PUSH1 0x0 PUSH2 0x2710 PUSH2 0x97A PUSH1 0x64 DUP5 PUSH2 0xDC9 JUMP JUMPDEST PUSH2 0x984 SWAP2 SWAP1 PUSH2 0xD94 JUMP JUMPDEST SWAP1 POP PUSH1 0x0 PUSH2 0x992 DUP3 DUP5 PUSH2 0xDE0 JUMP JUMPDEST SWAP1 POP DUP5 DUP2 LT ISZERO PUSH2 0x9B4 JUMPI PUSH1 0x40 MLOAD PUSH3 0x461BCD PUSH1 0xE5 SHL DUP2 MSTORE PUSH1 0x4 ADD PUSH2 0x42C SWAP1 PUSH2 0xE96 JUMP JUMPDEST PUSH1 0x1 SLOAD PUSH1 0x40 MLOAD PUSH4 0x2770A7EB PUSH1 0xE2 SHL DUP2 MSTORE CALLER PUSH1 0x4 DUP3 ADD MSTORE PUSH1 0x24 DUP2 ADD DUP9 SWAP1 MSTORE PUSH1 0x1 PUSH1 0x1 PUSH1 0xA0 SHL SUB SWAP1 SWAP2 AND SWAP1 PUSH4 0x9DC29FAC SWAP1 PUSH1 0x44 ADD PUSH1 0x0 PUSH1 0x40 MLOAD DUP1 DUP4 SUB DUP2 PUSH1 0x0 DUP8 DUP1 EXTCODESIZE ISZERO DUP1 ISZERO PUSH2 0xA00 JUMPI PUSH1 0x0 DUP1 REVERT JUMPDEST POP GAS CALL ISZERO DUP1 ISZERO PUSH2 0xA14 JUMPI RETURNDATASIZE PUSH1 0x0 DUP1 RETURNDATACOPY RETURNDATASIZE PUSH1 0x0 REVERT JUMPDEST POP POP POP POP PUSH1 0x0 DUP3 GT DUP1 ISZERO PUSH2 0xA32 JUMPI POP PUSH1 0x4 SLOAD PUSH1 0x1 PUSH1 0x1 PUSH1 0xA0 SHL SUB AND ISZERO ISZERO JUMPDEST ISZERO PUSH2 0xAA5 JUMPI PUSH1 0x4 DUP1 SLOAD PUSH1 0x3 SLOAD PUSH1 0x2 SLOAD PUSH1 0x40 MLOAD PUSH4 0x4BF199E9 PUSH1 0xE0 SHL DUP2 MSTORE SWAP4 DUP5 ADD SWAP2 SWAP1 SWAP2 MSTORE PUSH1 0x1 PUSH1 0x1 PUSH1 0xA0 SHL SUB SWAP1 DUP2 AND PUSH1 0x24 DUP5 ADD MSTORE AND SWAP1 PUSH4 0x4BF199E9 SWAP1 DUP5 SWAP1 PUSH1 0x44 ADD PUSH1 0x0 PUSH1 0x40 MLOAD DUP1 DUP4 SUB DUP2 DUP6 DUP9 DUP1 EXTCODESIZE ISZERO DUP1 ISZERO PUSH2 0xA8B JUMPI PUSH1 0x0 DUP1 REVERT JUMPDEST POP GAS CALL ISZERO DUP1 ISZERO PUSH2 0xA9F JUMPI RETURNDATASIZE PUSH1 0x0 DUP1 RETURNDATACOPY RETURNDATASIZE PUSH1 0x0 REVERT JUMPDEST POP POP POP POP POP JUMPDEST DUP1 ISZERO PUSH2 0xB57 JUMPI PUSH1 0x40 MLOAD PUSH1 0x0 SWAP1 CALLER SWAP1 DUP4 SWAP1 DUP4 DUP2 DUP2 DUP2 DUP6 DUP8 GAS CALL SWAP3 POP POP POP RETURNDATASIZE DUP1 PUSH1 0x0 DUP2 EQ PUSH2 0xAED JUMPI PUSH1 0x40 MLOAD SWAP2 POP PUSH1 0x1F NOT PUSH1 0x3F RETURNDATASIZE ADD AND DUP3 ADD PUSH1 0x40 MSTORE RETURNDATASIZE DUP3 MSTORE RETURNDATASIZE PUSH1 0x0 PUSH1 0x20 DUP5 ADD RETURNDATACOPY PUSH2 0xAF2 JUMP JUMPDEST PUSH1 0x60 SWAP2 POP JUMPDEST POP POP SWAP1 POP DUP1 PUSH2 0xB55 JUMPI PUSH1 0x40 MLOAD PUSH3 0x461BCD PUSH1 0xE5 SHL DUP2 MSTORE PUSH1 0x20 PUSH1 0x4 DUP3 ADD MSTORE PUSH1 0x29 PUSH1 0x24 DUP3 ADD MSTORE PUSH32 0x426F6E64696E6743757276654D61726B65743A20526566756E64207061796D65 PUSH1 0x44 DUP3 ADD MSTORE PUSH9 0x1B9D0819985A5B1959 PUSH1 0xBA SHL PUSH1 0x64 DUP3 ADD MSTORE PUSH1 0x84 ADD PUSH2 0x42C JUMP JUMPDEST POP JUMPDEST PUSH1 0x0 PUSH2 0xB63 DUP8 DUP7 PUSH2 0xDE0 JUMP JUMPDEST SWAP1 POP PUSH1 0x0 PUSH8 0xDE0B6B3A7640000 PUSH2 0xB7E DUP4 PUSH4 0x3B9ACA00 PUSH2 0xDC9 JUMP JUMPDEST PUSH2 0xB88 SWAP2 SWAP1 PUSH2 0xD94 JUMP JUMPDEST PUSH2 0xB96 SWAP1 PUSH4 0x3B9ACA00 PUSH2 0xDB6 JUMP JUMPDEST PUSH1 0x40 DUP1 MLOAD DUP6 DUP2 MSTORE PUSH1 0x20 DUP2 ADD DUP12 SWAP1 MSTORE SWAP1 DUP2 ADD DUP3 SWAP1 MSTORE PUSH1 0x60 DUP2 ADD DUP5 SWAP1 MSTORE SWAP1 SWAP2 POP PUSH1 0x0 SWAP1 CALLER SWAP1 PUSH32 0xFE532173D297F99183D706A16C0241E5EE6E9E5C58290B3D552CCF0F29119D93 SWAP1 PUSH1 0x80 ADD PUSH1 0x40 MLOAD DUP1 SWAP2 SUB SWAP1 LOG3 POP POP POP POP POP POP PUSH2 0x82E PUSH1 0x1 PUSH1 0x0 DUP1 MLOAD PUSH1 0x20 PUSH2 0xEFB DUP4 CODECOPY DUP2 MLOAD SWAP2 MSTORE SSTORE JUMP JUMPDEST PUSH2 0xC0B PUSH2 0xC41 JUMP JUMPDEST PUSH1 0x1 PUSH1 0x1 PUSH1 0xA0 SHL SUB DUP2 AND PUSH2 0xC35 JUMPI PUSH1 0x40 MLOAD PUSH4 0x1E4FBDF7 PUSH1 0xE0 SHL DUP2 MSTORE PUSH1 0x0 PUSH1 0x4 DUP3 ADD MSTORE PUSH1 0x24 ADD PUSH2 0x42C JUMP JUMPDEST PUSH2 0xC3E DUP2 PUSH2 0xC6E JUMP JUMPDEST POP JUMP JUMPDEST PUSH1 0x0 SLOAD PUSH1 0x1 PUSH1 0x1 PUSH1 0xA0 SHL SUB AND CALLER EQ PUSH2 0x35C JUMPI PUSH1 0x40 MLOAD PUSH4 0x118CDAA7 PUSH1 0xE0 SHL DUP2 MSTORE CALLER PUSH1 0x4 DUP3 ADD MSTORE PUSH1 0x24 ADD PUSH2 0x42C JUMP JUMPDEST PUSH1 0x0 DUP1 SLOAD PUSH1 0x1 PUSH1 0x1 PUSH1 0xA0 SHL SUB DUP4 DUP2 AND PUSH1 0x1 PUSH1 0x1 PUSH1 0xA0 SHL SUB NOT DUP4 AND DUP2 OR DUP5 SSTORE PUSH1 0x40 MLOAD SWAP2 SWAP1 SWAP3 AND SWAP3 DUP4 SWAP2 PUSH32 0x8BE0079C531659141344CD1FD0A4F28419497F9722A3DAAFE3B4186F6B6457E0 SWAP2 SWAP1 LOG3 POP POP JUMP JUMPDEST PUSH2 0xCC6 PUSH2 0xCDA JUMP JUMPDEST PUSH1 0x2 PUSH1 0x0 DUP1 MLOAD PUSH1 0x20 PUSH2 0xEFB DUP4 CODECOPY DUP2 MLOAD SWAP2 MSTORE SSTORE JUMP JUMPDEST PUSH1 0x0 DUP1 MLOAD PUSH1 0x20 PUSH2 0xEFB DUP4 CODECOPY DUP2 MLOAD SWAP2 MSTORE SLOAD PUSH1 0x2 SUB PUSH2 0x35C JUMPI PUSH1 0x40 MLOAD PUSH4 0x3EE5AEB5 PUSH1 0xE0 SHL DUP2 MSTORE PUSH1 0x4 ADD PUSH1 0x40 MLOAD DUP1 SWAP2 SUB SWAP1 REVERT JUMPDEST PUSH1 0x0 PUSH1 0x20 DUP3 DUP5 SUB SLT ISZERO PUSH2 0xD1C JUMPI PUSH1 0x0 DUP1 REVERT JUMPDEST DUP2 CALLDATALOAD DUP1 ISZERO ISZERO DUP2 EQ PUSH2 0xD2C JUMPI PUSH1 0x0 DUP1 REVERT JUMPDEST SWAP4 SWAP3 POP POP POP JUMP JUMPDEST PUSH1 0x0 DUP1 PUSH1 0x40 DUP4 DUP6 SUB SLT ISZERO PUSH2 0xD46 JUMPI PUSH1 0x0 DUP1 REVERT JUMPDEST POP POP DUP1 CALLDATALOAD SWAP3 PUSH1 0x20 SWAP1 SWAP2 ADD CALLDATALOAD SWAP2 POP JUMP JUMPDEST PUSH1 0x0 PUSH1 0x20 DUP3 DUP5 SUB SLT ISZERO PUSH2 0xD67 JUMPI PUSH1 0x0 DUP1 REVERT JUMPDEST DUP2 CALLDATALOAD PUSH1 0x1 PUSH1 0x1 PUSH1 0xA0 SHL SUB DUP2 AND DUP2 EQ PUSH2 0xD2C JUMPI PUSH1 0x0 DUP1 REVERT JUMPDEST PUSH4 0x4E487B71 PUSH1 0xE0 SHL PUSH1 0x0 MSTORE PUSH1 0x11 PUSH1 0x4 MSTORE PUSH1 0x24 PUSH1 0x0 REVERT JUMPDEST PUSH1 0x0 DUP3 PUSH2 0xDB1 JUMPI PUSH4 0x4E487B71 PUSH1 0xE0 SHL PUSH1 0x0 MSTORE PUSH1 0x12 PUSH1 0x4 MSTORE PUSH1 0x24 PUSH1 0x0 REVERT JUMPDEST POP DIV SWAP1 JUMP JUMPDEST DUP1 DUP3 ADD DUP1 DUP3 GT ISZERO PUSH2 0x3C8 JUMPI PUSH2 0x3C8 PUSH2 0xD7E JUMP JUMPDEST DUP1 DUP3 MUL DUP2 ISZERO DUP3 DUP3 DIV DUP5 EQ OR PUSH2 0x3C8 JUMPI PUSH2 0x3C8 PUSH2 0xD7E JUMP JUMPDEST DUP2 DUP2 SUB DUP2 DUP2 GT ISZERO PUSH2 0x3C8 JUMPI PUSH2 0x3C8 PUSH2 0xD7E JUMP JUMPDEST PUSH1 0x20 DUP1 DUP3 MSTORE PUSH1 0x26 SWAP1 DUP3 ADD MSTORE PUSH32 0x426F6E64696E6743757276654D61726B65743A20436F6E747261637420697320 PUSH1 0x40 DUP3 ADD MSTORE PUSH6 0x1C185D5CD959 PUSH1 0xD2 SHL PUSH1 0x60 DUP3 ADD MSTORE PUSH1 0x80 ADD SWAP1 JUMP JUMPDEST PUSH1 0x20 DUP1 DUP3 MSTORE PUSH1 0x3A SWAP1 DUP3 ADD MSTORE PUSH32 0x426F6E64696E6743757276654D61726B65743A20546F6B656E20616D6F756E74 PUSH1 0x40 DUP3 ADD MSTORE PUSH32 0x206D7573742062652067726561746572207468616E207A65726F000000000000 PUSH1 0x60 DUP3 ADD MSTORE PUSH1 0x80 ADD SWAP1 JUMP JUMPDEST PUSH1 0x20 DUP1 DUP3 MSTORE PUSH1 0x2B SWAP1 DUP3 ADD MSTORE PUSH32 0x426F6E64696E6743757276654D61726B65743A20536C697070616765206C696D PUSH1 0x40 DUP3 ADD MSTORE PUSH11 0x1A5D08195E18D959591959 PUSH1 0xAA SHL PUSH1 0x60 DUP3 ADD MSTORE PUSH1 0x80 ADD SWAP1 JUMP JUMPDEST PUSH1 0x0 PUSH1 0x20 DUP3 DUP5 SUB SLT ISZERO PUSH2 0xEF3 JUMPI PUSH1 0x0 DUP1 REVERT JUMPDEST POP MLOAD SWAP2 SWAP1 POP JUMP INVALID SWAP12 PUSH24 0x9B17422D0DF92223018B32B4D1FA46E071723D6817E2486D STOP EXTCODESIZE 0xEC 0xC5 PUSH0 STOP LOG2 PUSH5 0x6970667358 0x22 SLT KECCAK256 0x5E ADDMOD PUSH29 0x1049427F156A49C4F67740910CD150B6F7B067803E13087FDFB3D5A743 PUSH5 0x736F6C6343 STOP ADDMOD EQ STOP CALLER "},"methodIdentifiers":{"FEE_BASIS_POINTS()":"a525ad3c","INITIAL_PRICE()":"7c5e2795","PRICE_MULTIPLIER()":"113990b8","buy(uint256,uint256)":"d6febde8","curatorWallet()":"a96b51ab","feeDistributor()":"0d43e8ad","getBuyQuote(uint256,uint256)":"92f0ae4a","getSellQuote(uint256,uint256)":"9beb5bad","owner()":"8da5cb5b","paused()":"5c975abb","renounceOwnership()":"715018a6","sell(uint256,uint256)":"d79875eb","setPaused(bool)":"16c38b3c","sourceHash()":"a363a267","tokenAddress()":"9d76ea58","transferOwnership(address)":"f2fde38b"}}}}}