{"contracts/FeeDistributor.sol":{"FeeDistributor":{"abi":[{"inputs":[{"internalType":"address","name":"_creatorClaimVault","type":"address"},{"internalType":"address","name":"_platformTreasury","type":"address"},{"internalType":"address","name":"_liquidityReserve","type":"address"},{"internalType":"address","name":"_safetyFund","type":"address"},{"internalType":"address","name":"_owner","type":"address"}],"stateMutability":"nonpayable","type":"constructor"},{"inputs":[{"internalType":"address","name":"owner","type":"address"}],"name":"OwnableInvalidOwner","type":"error"},{"inputs":[{"internalType":"address","name":"account","type":"address"}],"name":"OwnableUnauthorizedAccount","type":"error"},{"anonymous":false,"inputs":[{"indexed":true,"internalType":"bytes32","name":"sourceHash","type":"bytes32"},{"indexed":true,"internalType":"address","name":"curator","type":"address"},{"indexed":false,"internalType":"uint256","name":"totalAmount","type":"uint256"},{"indexed":false,"internalType":"uint256","name":"creatorShare","type":"uint256"},{"indexed":false,"internalType":"uint256","name":"curatorShare","type":"uint256"},{"indexed":false,"internalType":"uint256","name":"treasuryShare","type":"uint256"},{"indexed":false,"internalType":"uint256","name":"liquidityShare","type":"uint256"},{"indexed":false,"internalType":"uint256","name":"safetyShare","type":"uint256"}],"name":"FeesDistributed","type":"event"},{"anonymous":false,"inputs":[{"indexed":true,"internalType":"address","name":"previousOwner","type":"address"},{"indexed":true,"internalType":"address","name":"newOwner","type":"address"}],"name":"OwnershipTransferred","type":"event"},{"inputs":[],"name":"creatorClaimVault","outputs":[{"internalType":"address","name":"","type":"address"}],"stateMutability":"view","type":"function"},{"inputs":[{"internalType":"bytes32","name":"sourceHash","type":"bytes32"},{"internalType":"address","name":"curator","type":"address"}],"name":"distributeFees","outputs":[],"stateMutability":"payable","type":"function"},{"inputs":[],"name":"liquidityReserve","outputs":[{"internalType":"address","name":"","type":"address"}],"stateMutability":"view","type":"function"},{"inputs":[],"name":"owner","outputs":[{"internalType":"address","name":"","type":"address"}],"stateMutability":"view","type":"function"},{"inputs":[],"name":"platformTreasury","outputs":[{"internalType":"address","name":"","type":"address"}],"stateMutability":"view","type":"function"},{"inputs":[],"name":"renounceOwnership","outputs":[],"stateMutability":"nonpayable","type":"function"},{"inputs":[],"name":"safetyFund","outputs":[{"internalType":"address","name":"","type":"address"}],"stateMutability":"view","type":"function"},{"inputs":[{"internalType":"address","name":"_creatorClaimVault","type":"address"},{"internalType":"address","name":"_platformTreasury","type":"address"},{"internalType":"address","name":"_liquidityReserve","type":"address"},{"internalType":"address","name":"_safetyFund","type":"address"}],"name":"setAddresses","outputs":[],"stateMutability":"nonpayable","type":"function"},{"inputs":[{"internalType":"address","name":"newOwner","type":"address"}],"name":"transferOwnership","outputs":[],"stateMutability":"nonpayable","type":"function"},{"stateMutability":"payable","type":"receive"}],"evm":{"bytecode":{"linkReferences":{},"object":"608060405234801561001057600080fd5b50604051610b27380380610b2783398101604081905261002f91610128565b806001600160a01b03811661005e57604051631e4fbdf760e01b81526000600482015260240160405180910390fd5b610067816100bc565b5050600180546001600160a01b039586166001600160a01b031991821617909155600280549486169482169490941790935560038054928516928416929092179091556004805491909316911617905561018d565b600080546001600160a01b038381166001600160a01b0319831681178455604051919092169283917f8be0079c531659141344cd1fd0a4f28419497f9722a3daafe3b4186f6b6457e09190a35050565b80516001600160a01b038116811461012357600080fd5b919050565b600080600080600060a0868803121561014057600080fd5b6101498661010c565b94506101576020870161010c565b93506101656040870161010c565b92506101736060870161010c565b91506101816080870161010c565b90509295509295909350565b61098b8061019c6000396000f3fe60806040526004361061008a5760003560e01c80639b5055aa116100595780639b5055aa14610116578063b753bfe914610136578063e138818c14610156578063f152c12214610176578063f2fde38b1461019657600080fd5b80634a945f8d146100965780634bf199e9146100b8578063715018a6146100cb5780638da5cb5b146100e057600080fd5b3661009157005b600080fd5b3480156100a257600080fd5b506100b66100b1366004610838565b6101b6565b005b6100b66100c636600461088c565b61020e565b3480156100d757600080fd5b506100b661074d565b3480156100ec57600080fd5b506000546001600160a01b03165b6040516001600160a01b03909116815260200160405180910390f35b34801561012257600080fd5b506004546100fa906001600160a01b031681565b34801561014257600080fd5b506003546100fa906001600160a01b031681565b34801561016257600080fd5b506002546100fa906001600160a01b031681565b34801561018257600080fd5b506001546100fa906001600160a01b031681565b3480156101a257600080fd5b506100b66101b13660046108b8565b610761565b6101be61079f565b600180546001600160a01b039586166001600160a01b0319918216179091556002805494861694821694909417909355600380549285169284169290921790915560048054919093169116179055565b348061027a5760405162461bcd60e51b815260206004820152603060248201527f4665654469737472696275746f723a20416d6f756e74206d757374206265206760448201526f726561746572207468616e207a65726f60801b60648201526084015b60405180910390fd5b6000606461028983601e6108f0565b610293919061090d565b9050600060646102a48460196108f0565b6102ae919061090d565b9050600060646102bf8560196108f0565b6102c9919061090d565b9050600060646102da86600f6108f0565b6102e4919061090d565b9050600081836102f4868861092f565b6102fe919061092f565b610308919061092f565b6103129087610942565b905060008511801561032e57506001546001600160a01b031615155b1561039457600154604051634546346960e11b8152600481018a90526001600160a01b0390911690638a8c68d29087906024016000604051808303818588803b15801561037a57600080fd5b505af115801561038e573d6000803e3d6000fd5b50505050505b6000841180156103ac57506001600160a01b03871615155b15610465576000876001600160a01b03168560405160006040518083038185875af1925050503d80600081146103fe576040519150601f19603f3d011682016040523d82523d6000602084013e610403565b606091505b50509050806104635760405162461bcd60e51b815260206004820152602660248201527f4665654469737472696275746f723a2043757261746f72207061796d656e742060448201526519985a5b195960d21b6064820152608401610271565b505b60008311801561047f57506002546001600160a01b031615155b15610539576002546040516000916001600160a01b03169085908381818185875af1925050503d80600081146104d1576040519150601f19603f3d011682016040523d82523d6000602084013e6104d6565b606091505b50509050806105375760405162461bcd60e51b815260206004820152602760248201527f4665654469737472696275746f723a205472656173757279207061796d656e746044820152660819985a5b195960ca1b6064820152608401610271565b505b60008211801561055357506003546001600160a01b031615155b1561060e576003546040516000916001600160a01b03169084908381818185875af1925050503d80600081146105a5576040519150601f19603f3d011682016040523d82523d6000602084013e6105aa565b606091505b505090508061060c5760405162461bcd60e51b815260206004820152602860248201527f4665654469737472696275746f723a204c6971756964697479207061796d656e6044820152671d0819985a5b195960c21b6064820152608401610271565b505b60008111801561062857506004546001600160a01b031615155b156106e0576004546040516000916001600160a01b03169083908381818185875af1925050503d806000811461067a576040519150601f19603f3d011682016040523d82523d6000602084013e61067f565b606091505b50509050806106de5760405162461bcd60e51b815260206004820152602560248201527f4665654469737472696275746f723a20536166657479207061796d656e742066604482015264185a5b195960da1b6064820152608401610271565b505b6040805187815260208101879052908101859052606081018490526080810183905260a081018290526001600160a01b0388169089907f2ecec3324aafe2f07965fc62f3b0c1206eb1c5146e73ac1a77d28f862af122e29060c00160405180910390a35050505050505050565b61075561079f565b61075f60006107cc565b565b61076961079f565b6001600160a01b03811661079357604051631e4fbdf760e01b815260006004820152602401610271565b61079c816107cc565b50565b6000546001600160a01b0316331461075f5760405163118cdaa760e01b8152336004820152602401610271565b600080546001600160a01b038381166001600160a01b0319831681178455604051919092169283917f8be0079c531659141344cd1fd0a4f28419497f9722a3daafe3b4186f6b6457e09190a35050565b80356001600160a01b038116811461083357600080fd5b919050565b6000806000806080858703121561084e57600080fd5b6108578561081c565b93506108656020860161081c565b92506108736040860161081c565b91506108816060860161081c565b905092959194509250565b6000806040838503121561089f57600080fd5b823591506108af6020840161081c565b90509250929050565b6000602082840312156108ca57600080fd5b6108d38261081c565b9392505050565b634e487b7160e01b600052601160045260246000fd5b8082028115828204841417610907576109076108da565b92915050565b60008261092a57634e487b7160e01b600052601260045260246000fd5b500490565b80820180821115610907576109076108da565b81810381811115610907576109076108da56fea26469706673582212207bccddc8bf8cadf7bb2857ad9e0b343cbc66da1b70321b379d577958a3ea8ab664736f6c63430008140033","opcodes":"PUSH1 0x80 PUSH1 0x40 MSTORE CALLVALUE DUP1 ISZERO PUSH2 0x10 JUMPI PUSH1 0x0 DUP1 REVERT JUMPDEST POP PUSH1 0x40 MLOAD PUSH2 0xB27 CODESIZE SUB DUP1 PUSH2 0xB27 DUP4 CODECOPY DUP2 ADD PUSH1 0x40 DUP2 SWAP1 MSTORE PUSH2 0x2F SWAP2 PUSH2 0x128 JUMP JUMPDEST DUP1 PUSH1 0x1 PUSH1 0x1 PUSH1 0xA0 SHL SUB DUP2 AND PUSH2 0x5E JUMPI PUSH1 0x40 MLOAD PUSH4 0x1E4FBDF7 PUSH1 0xE0 SHL DUP2 MSTORE PUSH1 0x0 PUSH1 0x4 DUP3 ADD MSTORE PUSH1 0x24 ADD PUSH1 0x40 MLOAD DUP1 SWAP2 SUB SWAP1 REVERT JUMPDEST PUSH2 0x67 DUP2 PUSH2 0xBC JUMP JUMPDEST POP POP PUSH1 0x1 DUP1 SLOAD PUSH1 0x1 PUSH1 0x1 PUSH1 0xA0 SHL SUB SWAP6 DUP7 AND PUSH1 0x1 PUSH1 0x1 PUSH1 0xA0 SHL SUB NOT SWAP2 DUP3 AND OR SWAP1 SWAP2 SSTORE PUSH1 0x2 DUP1 SLOAD SWAP5 DUP7 AND SWAP5 DUP3 AND SWAP5 SWAP1 SWAP5 OR SWAP1 SWAP4 SSTORE PUSH1 0x3 DUP1 SLOAD SWAP3 DUP6 AND SWAP3 DUP5 AND SWAP3 SWAP1 SWAP3 OR SWAP1 SWAP2 SSTORE PUSH1 0x4 DUP1 SLOAD SWAP2 SWAP1 SWAP4 AND SWAP2 AND OR SWAP1 SSTORE PUSH2 0x18D JUMP JUMPDEST PUSH1 0x0 DUP1 SLOAD PUSH1 0x1 PUSH1 0x1 PUSH1 0xA0 SHL SUB DUP4 DUP2 AND PUSH1 0x1 PUSH1 0x1 PUSH1 0xA0 SHL SUB NOT DUP4 AND DUP2 OR DUP5 SSTORE PUSH1 0x40 MLOAD SWAP2 SWAP1 SWAP3 AND SWAP3 DUP4 SWAP2 PUSH32 0x8BE0079C531659141344CD1FD0A4F28419497F9722A3DAAFE3B4186F6B6457E0 SWAP2 SWAP1 LOG3 POP POP JUMP JUMPDEST DUP1 MLOAD PUSH1 0x1 PUSH1 0x1 PUSH1 0xA0 SHL SUB DUP2 AND DUP2 EQ PUSH2 0x123 JUMPI PUSH1 0x0 DUP1 REVERT JUMPDEST SWAP2 SWAP1 POP JUMP JUMPDEST PUSH1 0x0 DUP1 PUSH1 0x0 DUP1 PUSH1 0x0 PUSH1 0xA0 DUP7 DUP9 SUB SLT ISZERO PUSH2 0x140 JUMPI PUSH1 0x0 DUP1 REVERT JUMPDEST PUSH2 0x149 DUP7 PUSH2 0x10C JUMP JUMPDEST SWAP5 POP PUSH2 0x157 PUSH1 0x20 DUP8 ADD PUSH2 0x10C JUMP JUMPDEST SWAP4 POP PUSH2 0x165 PUSH1 0x40 DUP8 ADD PUSH2 0x10C JUMP JUMPDEST SWAP3 POP PUSH2 0x173 PUSH1 0x60 DUP8 ADD PUSH2 0x10C JUMP JUMPDEST SWAP2 POP PUSH2 0x181 PUSH1 0x80 DUP8 ADD PUSH2 0x10C JUMP JUMPDEST SWAP1 POP SWAP3 SWAP6 POP SWAP3 SWAP6 SWAP1 SWAP4 POP JUMP JUMPDEST PUSH2 0x98B DUP1 PUSH2 0x19C PUSH1 0x0 CODECOPY PUSH1 0x0 RETURN INVALID PUSH1 0x80 PUSH1 0x40 MSTORE PUSH1 0x4 CALLDATASIZE LT PUSH2 0x8A JUMPI PUSH1 0x0 CALLDATALOAD PUSH1 0xE0 SHR DUP1 PUSH4 0x9B5055AA GT PUSH2 0x59 JUMPI DUP1 PUSH4 0x9B5055AA EQ PUSH2 0x116 JUMPI DUP1 PUSH4 0xB753BFE9 EQ PUSH2 0x136 JUMPI DUP1 PUSH4 0xE138818C EQ PUSH2 0x156 JUMPI DUP1 PUSH4 0xF152C122 EQ PUSH2 0x176 JUMPI DUP1 PUSH4 0xF2FDE38B EQ PUSH2 0x196 JUMPI PUSH1 0x0 DUP1 REVERT JUMPDEST DUP1 PUSH4 0x4A945F8D EQ PUSH2 0x96 JUMPI DUP1 PUSH4 0x4BF199E9 EQ PUSH2 0xB8 JUMPI DUP1 PUSH4 0x715018A6 EQ PUSH2 0xCB JUMPI DUP1 PUSH4 0x8DA5CB5B EQ PUSH2 0xE0 JUMPI PUSH1 0x0 DUP1 REVERT JUMPDEST CALLDATASIZE PUSH2 0x91 JUMPI STOP JUMPDEST PUSH1 0x0 DUP1 REVERT JUMPDEST CALLVALUE DUP1 ISZERO PUSH2 0xA2 JUMPI PUSH1 0x0 DUP1 REVERT JUMPDEST POP PUSH2 0xB6 PUSH2 0xB1 CALLDATASIZE PUSH1 0x4 PUSH2 0x838 JUMP JUMPDEST PUSH2 0x1B6 JUMP JUMPDEST STOP JUMPDEST PUSH2 0xB6 PUSH2 0xC6 CALLDATASIZE PUSH1 0x4 PUSH2 0x88C JUMP JUMPDEST PUSH2 0x20E JUMP JUMPDEST CALLVALUE DUP1 ISZERO PUSH2 0xD7 JUMPI PUSH1 0x0 DUP1 REVERT JUMPDEST POP PUSH2 0xB6 PUSH2 0x74D JUMP JUMPDEST CALLVALUE DUP1 ISZERO PUSH2 0xEC JUMPI PUSH1 0x0 DUP1 REVERT JUMPDEST POP PUSH1 0x0 SLOAD PUSH1 0x1 PUSH1 0x1 PUSH1 0xA0 SHL SUB AND JUMPDEST PUSH1 0x40 MLOAD PUSH1 0x1 PUSH1 0x1 PUSH1 0xA0 SHL SUB SWAP1 SWAP2 AND DUP2 MSTORE PUSH1 0x20 ADD PUSH1 0x40 MLOAD DUP1 SWAP2 SUB SWAP1 RETURN JUMPDEST CALLVALUE DUP1 ISZERO PUSH2 0x122 JUMPI PUSH1 0x0 DUP1 REVERT JUMPDEST POP PUSH1 0x4 SLOAD PUSH2 0xFA SWAP1 PUSH1 0x1 PUSH1 0x1 PUSH1 0xA0 SHL SUB AND DUP2 JUMP JUMPDEST CALLVALUE DUP1 ISZERO PUSH2 0x142 JUMPI PUSH1 0x0 DUP1 REVERT JUMPDEST POP PUSH1 0x3 SLOAD PUSH2 0xFA SWAP1 PUSH1 0x1 PUSH1 0x1 PUSH1 0xA0 SHL SUB AND DUP2 JUMP JUMPDEST CALLVALUE DUP1 ISZERO PUSH2 0x162 JUMPI PUSH1 0x0 DUP1 REVERT JUMPDEST POP PUSH1 0x2 SLOAD PUSH2 0xFA SWAP1 PUSH1 0x1 PUSH1 0x1 PUSH1 0xA0 SHL SUB AND DUP2 JUMP JUMPDEST CALLVALUE DUP1 ISZERO PUSH2 0x182 JUMPI PUSH1 0x0 DUP1 REVERT JUMPDEST POP PUSH1 0x1 SLOAD PUSH2 0xFA SWAP1 PUSH1 0x1 PUSH1 0x1 PUSH1 0xA0 SHL SUB AND DUP2 JUMP JUMPDEST CALLVALUE DUP1 ISZERO PUSH2 0x1A2 JUMPI PUSH1 0x0 DUP1 REVERT JUMPDEST POP PUSH2 0xB6 PUSH2 0x1B1 CALLDATASIZE PUSH1 0x4 PUSH2 0x8B8 JUMP JUMPDEST PUSH2 0x761 JUMP JUMPDEST PUSH2 0x1BE PUSH2 0x79F JUMP JUMPDEST PUSH1 0x1 DUP1 SLOAD PUSH1 0x1 PUSH1 0x1 PUSH1 0xA0 SHL SUB SWAP6 DUP7 AND PUSH1 0x1 PUSH1 0x1 PUSH1 0xA0 SHL SUB NOT SWAP2 DUP3 AND OR SWAP1 SWAP2 SSTORE PUSH1 0x2 DUP1 SLOAD SWAP5 DUP7 AND SWAP5 DUP3 AND SWAP5 SWAP1 SWAP5 OR SWAP1 SWAP4 SSTORE PUSH1 0x3 DUP1 SLOAD SWAP3 DUP6 AND SWAP3 DUP5 AND SWAP3 SWAP1 SWAP3 OR SWAP1 SWAP2 SSTORE PUSH1 0x4 DUP1 SLOAD SWAP2 SWAP1 SWAP4 AND SWAP2 AND OR SWAP1 SSTORE JUMP JUMPDEST CALLVALUE DUP1 PUSH2 0x27A JUMPI PUSH1 0x40 MLOAD PUSH3 0x461BCD PUSH1 0xE5 SHL DUP2 MSTORE PUSH1 0x20 PUSH1 0x4 DUP3 ADD MSTORE PUSH1 0x30 PUSH1 0x24 DUP3 ADD MSTORE PUSH32 0x4665654469737472696275746F723A20416D6F756E74206D7573742062652067 PUSH1 0x44 DUP3 ADD MSTORE PUSH16 0x726561746572207468616E207A65726F PUSH1 0x80 SHL PUSH1 0x64 DUP3 ADD MSTORE PUSH1 0x84 ADD JUMPDEST PUSH1 0x40 MLOAD DUP1 SWAP2 SUB SWAP1 REVERT JUMPDEST PUSH1 0x0 PUSH1 0x64 PUSH2 0x289 DUP4 PUSH1 0x1E PUSH2 0x8F0 JUMP JUMPDEST PUSH2 0x293 SWAP2 SWAP1 PUSH2 0x90D JUMP JUMPDEST SWAP1 POP PUSH1 0x0 PUSH1 0x64 PUSH2 0x2A4 DUP5 PUSH1 0x19 PUSH2 0x8F0 JUMP JUMPDEST PUSH2 0x2AE SWAP2 SWAP1 PUSH2 0x90D JUMP JUMPDEST SWAP1 POP PUSH1 0x0 PUSH1 0x64 PUSH2 0x2BF DUP6 PUSH1 0x19 PUSH2 0x8F0 JUMP JUMPDEST PUSH2 0x2C9 SWAP2 SWAP1 PUSH2 0x90D JUMP JUMPDEST SWAP1 POP PUSH1 0x0 PUSH1 0x64 PUSH2 0x2DA DUP7 PUSH1 0xF PUSH2 0x8F0 JUMP JUMPDEST PUSH2 0x2E4 SWAP2 SWAP1 PUSH2 0x90D JUMP JUMPDEST SWAP1 POP PUSH1 0x0 DUP2 DUP4 PUSH2 0x2F4 DUP7 DUP9 PUSH2 0x92F JUMP JUMPDEST PUSH2 0x2FE SWAP2 SWAP1 PUSH2 0x92F JUMP JUMPDEST PUSH2 0x308 SWAP2 SWAP1 PUSH2 0x92F JUMP JUMPDEST PUSH2 0x312 SWAP1 DUP8 PUSH2 0x942 JUMP JUMPDEST SWAP1 POP PUSH1 0x0 DUP6 GT DUP1 ISZERO PUSH2 0x32E JUMPI POP PUSH1 0x1 SLOAD PUSH1 0x1 PUSH1 0x1 PUSH1 0xA0 SHL SUB AND ISZERO ISZERO JUMPDEST ISZERO PUSH2 0x394 JUMPI PUSH1 0x1 SLOAD PUSH1 0x40 MLOAD PUSH4 0x45463469 PUSH1 0xE1 SHL DUP2 MSTORE PUSH1 0x4 DUP2 ADD DUP11 SWAP1 MSTORE PUSH1 0x1 PUSH1 0x1 PUSH1 0xA0 SHL SUB SWAP1 SWAP2 AND SWAP1 PUSH4 0x8A8C68D2 SWAP1 DUP8 SWAP1 PUSH1 0x24 ADD PUSH1 0x0 PUSH1 0x40 MLOAD DUP1 DUP4 SUB DUP2 DUP6 DUP9 DUP1 EXTCODESIZE ISZERO DUP1 ISZERO PUSH2 0x37A JUMPI PUSH1 0x0 DUP1 REVERT JUMPDEST POP GAS CALL ISZERO DUP1 ISZERO PUSH2 0x38E JUMPI RETURNDATASIZE PUSH1 0x0 DUP1 RETURNDATACOPY RETURNDATASIZE PUSH1 0x0 REVERT JUMPDEST POP POP POP POP POP JUMPDEST PUSH1 0x0 DUP5 GT DUP1 ISZERO PUSH2 0x3AC JUMPI POP PUSH1 0x1 PUSH1 0x1 PUSH1 0xA0 SHL SUB DUP8 AND ISZERO ISZERO JUMPDEST ISZERO PUSH2 0x465 JUMPI PUSH1 0x0 DUP8 PUSH1 0x1 PUSH1 0x1 PUSH1 0xA0 SHL SUB AND DUP6 PUSH1 0x40 MLOAD PUSH1 0x0 PUSH1 0x40 MLOAD DUP1 DUP4 SUB DUP2 DUP6 DUP8 GAS CALL SWAP3 POP POP POP RETURNDATASIZE DUP1 PUSH1 0x0 DUP2 EQ PUSH2 0x3FE JUMPI PUSH1 0x40 MLOAD SWAP2 POP PUSH1 0x1F NOT PUSH1 0x3F RETURNDATASIZE ADD AND DUP3 ADD PUSH1 0x40 MSTORE RETURNDATASIZE DUP3 MSTORE RETURNDATASIZE PUSH1 0x0 PUSH1 0x20 DUP5 ADD RETURNDATACOPY PUSH2 0x403 JUMP JUMPDEST PUSH1 0x60 SWAP2 POP JUMPDEST POP POP SWAP1 POP DUP1 PUSH2 0x463 JUMPI PUSH1 0x40 MLOAD PUSH3 0x461BCD PUSH1 0xE5 SHL DUP2 MSTORE PUSH1 0x20 PUSH1 0x4 DUP3 ADD MSTORE PUSH1 0x26 PUSH1 0x24 DUP3 ADD MSTORE PUSH32 0x4665654469737472696275746F723A2043757261746F72207061796D656E7420 PUSH1 0x44 DUP3 ADD MSTORE PUSH6 0x19985A5B1959 PUSH1 0xD2 SHL PUSH1 0x64 DUP3 ADD MSTORE PUSH1 0x84 ADD PUSH2 0x271 JUMP JUMPDEST POP JUMPDEST PUSH1 0x0 DUP4 GT DUP1 ISZERO PUSH2 0x47F JUMPI POP PUSH1 0x2 SLOAD PUSH1 0x1 PUSH1 0x1 PUSH1 0xA0 SHL SUB AND ISZERO ISZERO JUMPDEST ISZERO PUSH2 0x539 JUMPI PUSH1 0x2 SLOAD PUSH1 0x40 MLOAD PUSH1 0x0 SWAP2 PUSH1 0x1 PUSH1 0x1 PUSH1 0xA0 SHL SUB AND SWAP1 DUP6 SWAP1 DUP4 DUP2 DUP2 DUP2 DUP6 DUP8 GAS CALL SWAP3 POP POP POP RETURNDATASIZE DUP1 PUSH1 0x0 DUP2 EQ PUSH2 0x4D1 JUMPI PUSH1 0x40 MLOAD SWAP2 POP PUSH1 0x1F NOT PUSH1 0x3F RETURNDATASIZE ADD AND DUP3 ADD PUSH1 0x40 MSTORE RETURNDATASIZE DUP3 MSTORE RETURNDATASIZE PUSH1 0x0 PUSH1 0x20 DUP5 ADD RETURNDATACOPY PUSH2 0x4D6 JUMP JUMPDEST PUSH1 0x60 SWAP2 POP JUMPDEST POP POP SWAP1 POP DUP1 PUSH2 0x537 JUMPI PUSH1 0x40 MLOAD PUSH3 0x461BCD PUSH1 0xE5 SHL DUP2 MSTORE PUSH1 0x20 PUSH1 0x4 DUP3 ADD MSTORE PUSH1 0x27 PUSH1 0x24 DUP3 ADD MSTORE PUSH32 0x4665654469737472696275746F723A205472656173757279207061796D656E74 PUSH1 0x44 DUP3 ADD MSTORE PUSH7 0x819985A5B1959 PUSH1 0xCA SHL PUSH1 0x64 DUP3 ADD MSTORE PUSH1 0x84 ADD PUSH2 0x271 JUMP JUMPDEST POP JUMPDEST PUSH1 0x0 DUP3 GT DUP1 ISZERO PUSH2 0x553 JUMPI POP PUSH1 0x3 SLOAD PUSH1 0x1 PUSH1 0x1 PUSH1 0xA0 SHL SUB AND ISZERO ISZERO JUMPDEST ISZERO PUSH2 0x60E JUMPI PUSH1 0x3 SLOAD PUSH1 0x40 MLOAD PUSH1 0x0 SWAP2 PUSH1 0x1 PUSH1 0x1 PUSH1 0xA0 SHL SUB AND SWAP1 DUP5 SWAP1 DUP4 DUP2 DUP2 DUP2 DUP6 DUP8 GAS CALL SWAP3 POP POP POP RETURNDATASIZE DUP1 PUSH1 0x0 DUP2 EQ PUSH2 0x5A5 JUMPI PUSH1 0x40 MLOAD SWAP2 POP PUSH1 0x1F NOT PUSH1 0x3F RETURNDATASIZE ADD AND DUP3 ADD PUSH1 0x40 MSTORE RETURNDATASIZE DUP3 MSTORE RETURNDATASIZE PUSH1 0x0 PUSH1 0x20 DUP5 ADD RETURNDATACOPY PUSH2 0x5AA JUMP JUMPDEST PUSH1 0x60 SWAP2 POP JUMPDEST POP POP SWAP1 POP DUP1 PUSH2 0x60C JUMPI PUSH1 0x40 MLOAD PUSH3 0x461BCD PUSH1 0xE5 SHL DUP2 MSTORE PUSH1 0x20 PUSH1 0x4 DUP3 ADD MSTORE PUSH1 0x28 PUSH1 0x24 DUP3 ADD MSTORE PUSH32 0x4665654469737472696275746F723A204C6971756964697479207061796D656E PUSH1 0x44 DUP3 ADD MSTORE PUSH8 0x1D0819985A5B1959 PUSH1 0xC2 SHL PUSH1 0x64 DUP3 ADD MSTORE PUSH1 0x84 ADD PUSH2 0x271 JUMP JUMPDEST POP JUMPDEST PUSH1 0x0 DUP2 GT DUP1 ISZERO PUSH2 0x628 JUMPI POP PUSH1 0x4 SLOAD PUSH1 0x1 PUSH1 0x1 PUSH1 0xA0 SHL SUB AND ISZERO ISZERO JUMPDEST ISZERO PUSH2 0x6E0 JUMPI PUSH1 0x4 SLOAD PUSH1 0x40 MLOAD PUSH1 0x0 SWAP2 PUSH1 0x1 PUSH1 0x1 PUSH1 0xA0 SHL SUB AND SWAP1 DUP4 SWAP1 DUP4 DUP2 DUP2 DUP2 DUP6 DUP8 GAS CALL SWAP3 POP POP POP RETURNDATASIZE DUP1 PUSH1 0x0 DUP2 EQ PUSH2 0x67A JUMPI PUSH1 0x40 MLOAD SWAP2 POP PUSH1 0x1F NOT PUSH1 0x3F RETURNDATASIZE ADD AND DUP3 ADD PUSH1 0x40 MSTORE RETURNDATASIZE DUP3 MSTORE RETURNDATASIZE PUSH1 0x0 PUSH1 0x20 DUP5 ADD RETURNDATACOPY PUSH2 0x67F JUMP JUMPDEST PUSH1 0x60 SWAP2 POP JUMPDEST POP POP SWAP1 POP DUP1 PUSH2 0x6DE JUMPI PUSH1 0x40 MLOAD PUSH3 0x461BCD PUSH1 0xE5 SHL DUP2 MSTORE PUSH1 0x20 PUSH1 0x4 DUP3 ADD MSTORE PUSH1 0x25 PUSH1 0x24 DUP3 ADD MSTORE PUSH32 0x4665654469737472696275746F723A20536166657479207061796D656E742066 PUSH1 0x44 DUP3 ADD MSTORE PUSH5 0x185A5B1959 PUSH1 0xDA SHL PUSH1 0x64 DUP3 ADD MSTORE PUSH1 0x84 ADD PUSH2 0x271 JUMP JUMPDEST POP JUMPDEST PUSH1 0x40 DUP1 MLOAD DUP8 DUP2 MSTORE PUSH1 0x20 DUP2 ADD DUP8 SWAP1 MSTORE SWAP1 DUP2 ADD DUP6 SWAP1 MSTORE PUSH1 0x60 DUP2 ADD DUP5 SWAP1 MSTORE PUSH1 0x80 DUP2 ADD DUP4 SWAP1 MSTORE PUSH1 0xA0 DUP2 ADD DUP3 SWAP1 MSTORE PUSH1 0x1 PUSH1 0x1 PUSH1 0xA0 SHL SUB DUP9 AND SWAP1 DUP10 SWAP1 PUSH32 0x2ECEC3324AAFE2F07965FC62F3B0C1206EB1C5146E73AC1A77D28F862AF122E2 SWAP1 PUSH1 0xC0 ADD PUSH1 0x40 MLOAD DUP1 SWAP2 SUB SWAP1 LOG3 POP POP POP POP POP POP POP POP JUMP JUMPDEST PUSH2 0x755 PUSH2 0x79F JUMP JUMPDEST PUSH2 0x75F PUSH1 0x0 PUSH2 0x7CC JUMP JUMPDEST JUMP JUMPDEST PUSH2 0x769 PUSH2 0x79F JUMP JUMPDEST PUSH1 0x1 PUSH1 0x1 PUSH1 0xA0 SHL SUB DUP2 AND PUSH2 0x793 JUMPI PUSH1 0x40 MLOAD PUSH4 0x1E4FBDF7 PUSH1 0xE0 SHL DUP2 MSTORE PUSH1 0x0 PUSH1 0x4 DUP3 ADD MSTORE PUSH1 0x24 ADD PUSH2 0x271 JUMP JUMPDEST PUSH2 0x79C DUP2 PUSH2 0x7CC JUMP JUMPDEST POP JUMP JUMPDEST PUSH1 0x0 SLOAD PUSH1 0x1 PUSH1 0x1 PUSH1 0xA0 SHL SUB AND CALLER EQ PUSH2 0x75F JUMPI PUSH1 0x40 MLOAD PUSH4 0x118CDAA7 PUSH1 0xE0 SHL DUP2 MSTORE CALLER PUSH1 0x4 DUP3 ADD MSTORE PUSH1 0x24 ADD PUSH2 0x271 JUMP JUMPDEST PUSH1 0x0 DUP1 SLOAD PUSH1 0x1 PUSH1 0x1 PUSH1 0xA0 SHL SUB DUP4 DUP2 AND PUSH1 0x1 PUSH1 0x1 PUSH1 0xA0 SHL SUB NOT DUP4 AND DUP2 OR DUP5 SSTORE PUSH1 0x40 MLOAD SWAP2 SWAP1 SWAP3 AND SWAP3 DUP4 SWAP2 PUSH32 0x8BE0079C531659141344CD1FD0A4F28419497F9722A3DAAFE3B4186F6B6457E0 SWAP2 SWAP1 LOG3 POP POP JUMP JUMPDEST DUP1 CALLDATALOAD PUSH1 0x1 PUSH1 0x1 PUSH1 0xA0 SHL SUB DUP2 AND DUP2 EQ PUSH2 0x833 JUMPI PUSH1 0x0 DUP1 REVERT JUMPDEST SWAP2 SWAP1 POP JUMP JUMPDEST PUSH1 0x0 DUP1 PUSH1 0x0 DUP1 PUSH1 0x80 DUP6 DUP8 SUB SLT ISZERO PUSH2 0x84E JUMPI PUSH1 0x0 DUP1 REVERT JUMPDEST PUSH2 0x857 DUP6 PUSH2 0x81C JUMP JUMPDEST SWAP4 POP PUSH2 0x865 PUSH1 0x20 DUP7 ADD PUSH2 0x81C JUMP JUMPDEST SWAP3 POP PUSH2 0x873 PUSH1 0x40 DUP7 ADD PUSH2 0x81C JUMP JUMPDEST SWAP2 POP PUSH2 0x881 PUSH1 0x60 DUP7 ADD PUSH2 0x81C JUMP JUMPDEST SWAP1 POP SWAP3 SWAP6 SWAP2 SWAP5 POP SWAP3 POP JUMP JUMPDEST PUSH1 0x0 DUP1 PUSH1 0x40 DUP4 DUP6 SUB SLT ISZERO PUSH2 0x89F JUMPI PUSH1 0x0 DUP1 REVERT JUMPDEST DUP3 CALLDATALOAD SWAP2 POP PUSH2 0x8AF PUSH1 0x20 DUP5 ADD PUSH2 0x81C JUMP JUMPDEST SWAP1 POP SWAP3 POP SWAP3 SWAP1 POP JUMP JUMPDEST PUSH1 0x0 PUSH1 0x20 DUP3 DUP5 SUB SLT ISZERO PUSH2 0x8CA JUMPI PUSH1 0x0 DUP1 REVERT JUMPDEST PUSH2 0x8D3 DUP3 PUSH2 0x81C JUMP JUMPDEST SWAP4 SWAP3 POP POP POP JUMP JUMPDEST PUSH4 0x4E487B71 PUSH1 0xE0 SHL PUSH1 0x0 MSTORE PUSH1 0x11 PUSH1 0x4 MSTORE PUSH1 0x24 PUSH1 0x0 REVERT JUMPDEST DUP1 DUP3 MUL DUP2 ISZERO DUP3 DUP3 DIV DUP5 EQ OR PUSH2 0x907 JUMPI PUSH2 0x907 PUSH2 0x8DA JUMP JUMPDEST SWAP3 SWAP2 POP POP JUMP JUMPDEST PUSH1 0x0 DUP3 PUSH2 0x92A JUMPI PUSH4 0x4E487B71 PUSH1 0xE0 SHL PUSH1 0x0 MSTORE PUSH1 0x12 PUSH1 0x4 MSTORE PUSH1 0x24 PUSH1 0x0 REVERT JUMPDEST POP DIV SWAP1 JUMP JUMPDEST DUP1 DUP3 ADD DUP1 DUP3 GT ISZERO PUSH2 0x907 JUMPI PUSH2 0x907 PUSH2 0x8DA JUMP JUMPDEST DUP2 DUP2 SUB DUP2 DUP2 GT ISZERO PUSH2 0x907 JUMPI PUSH2 0x907 PUSH2 0x8DA JUMP INVALID LOG2 PUSH5 0x6970667358 0x22 SLT KECCAK256 PUSH28 0xCCDDC8BF8CADF7BB2857AD9E0B343CBC66DA1B70321B379D577958A3 0xEA DUP11 0xB6 PUSH5 0x736F6C6343 STOP ADDMOD EQ STOP CALLER "},"methodIdentifiers":{"creatorClaimVault()":"f152c122","distributeFees(bytes32,address)":"4bf199e9","liquidityReserve()":"b753bfe9","owner()":"8da5cb5b","platformTreasury()":"e138818c","renounceOwnership()":"715018a6","safetyFund()":"9b5055aa","setAddresses(address,address,address,address)":"4a945f8d","transferOwnership(address)":"f2fde38b"}}}}}