{
  "_format": "hh-sol-artifact-1",
  "contractName": "FeeDistributor",
  "sourceName": "contracts/FeeDistributor.sol",
  "abi": [
    {
      "inputs": [
        {
          "internalType": "address",
          "name": "_creatorClaimVault",
          "type": "address"
        },
        {
          "internalType": "address",
          "name": "_platformTreasury",
          "type": "address"
        },
        {
          "internalType": "address",
          "name": "_liquidityReserve",
          "type": "address"
        },
        {
          "internalType": "address",
          "name": "_safetyFund",
          "type": "address"
        },
        {
          "internalType": "address",
          "name": "_owner",
          "type": "address"
        }
      ],
      "stateMutability": "nonpayable",
      "type": "constructor"
    },
    {
      "inputs": [
        {
          "internalType": "address",
          "name": "owner",
          "type": "address"
        }
      ],
      "name": "OwnableInvalidOwner",
      "type": "error"
    },
    {
      "inputs": [
        {
          "internalType": "address",
          "name": "account",
          "type": "address"
        }
      ],
      "name": "OwnableUnauthorizedAccount",
      "type": "error"
    },
    {
      "anonymous": false,
      "inputs": [
        {
          "indexed": true,
          "internalType": "bytes32",
          "name": "sourceHash",
          "type": "bytes32"
        },
        {
          "indexed": true,
          "internalType": "address",
          "name": "curator",
          "type": "address"
        },
        {
          "indexed": false,
          "internalType": "uint256",
          "name": "totalAmount",
          "type": "uint256"
        },
        {
          "indexed": false,
          "internalType": "uint256",
          "name": "creatorShare",
          "type": "uint256"
        },
        {
          "indexed": false,
          "internalType": "uint256",
          "name": "curatorShare",
          "type": "uint256"
        },
        {
          "indexed": false,
          "internalType": "uint256",
          "name": "treasuryShare",
          "type": "uint256"
        },
        {
          "indexed": false,
          "internalType": "uint256",
          "name": "liquidityShare",
          "type": "uint256"
        },
        {
          "indexed": false,
          "internalType": "uint256",
          "name": "safetyShare",
          "type": "uint256"
        }
      ],
      "name": "FeesDistributed",
      "type": "event"
    },
    {
      "anonymous": false,
      "inputs": [
        {
          "indexed": true,
          "internalType": "address",
          "name": "previousOwner",
          "type": "address"
        },
        {
          "indexed": true,
          "internalType": "address",
          "name": "newOwner",
          "type": "address"
        }
      ],
      "name": "OwnershipTransferred",
      "type": "event"
    },
    {
      "inputs": [],
      "name": "creatorClaimVault",
      "outputs": [
        {
          "internalType": "address",
          "name": "",
          "type": "address"
        }
      ],
      "stateMutability": "view",
      "type": "function"
    },
    {
      "inputs": [
        {
          "internalType": "bytes32",
          "name": "sourceHash",
          "type": "bytes32"
        },
        {
          "internalType": "address",
          "name": "curator",
          "type": "address"
        }
      ],
      "name": "distributeFees",
      "outputs": [],
      "stateMutability": "payable",
      "type": "function"
    },
    {
      "inputs": [],
      "name": "liquidityReserve",
      "outputs": [
        {
          "internalType": "address",
          "name": "",
          "type": "address"
        }
      ],
      "stateMutability": "view",
      "type": "function"
    },
    {
      "inputs": [],
      "name": "owner",
      "outputs": [
        {
          "internalType": "address",
          "name": "",
          "type": "address"
        }
      ],
      "stateMutability": "view",
      "type": "function"
    },
    {
      "inputs": [],
      "name": "platformTreasury",
      "outputs": [
        {
          "internalType": "address",
          "name": "",
          "type": "address"
        }
      ],
      "stateMutability": "view",
      "type": "function"
    },
    {
      "inputs": [],
      "name": "renounceOwnership",
      "outputs": [],
      "stateMutability": "nonpayable",
      "type": "function"
    },
    {
      "inputs": [],
      "name": "safetyFund",
      "outputs": [
        {
          "internalType": "address",
          "name": "",
          "type": "address"
        }
      ],
      "stateMutability": "view",
      "type": "function"
    },
    {
      "inputs": [
        {
          "internalType": "address",
          "name": "_creatorClaimVault",
          "type": "address"
        },
        {
          "internalType": "address",
          "name": "_platformTreasury",
          "type": "address"
        },
        {
          "internalType": "address",
          "name": "_liquidityReserve",
          "type": "address"
        },
        {
          "internalType": "address",
          "name": "_safetyFund",
          "type": "address"
        }
      ],
      "name": "setAddresses",
      "outputs": [],
      "stateMutability": "nonpayable",
      "type": "function"
    },
    {
      "inputs": [
        {
          "internalType": "address",
          "name": "newOwner",
          "type": "address"
        }
      ],
      "name": "transferOwnership",
      "outputs": [],
      "stateMutability": "nonpayable",
      "type": "function"
    },
    {
      "stateMutability": "payable",
      "type": "receive"
    }
  ],
  "bytecode": "0x608060405234801561001057600080fd5b50604051610b27380380610b2783398101604081905261002f91610128565b806001600160a01b03811661005e57604051631e4fbdf760e01b81526000600482015260240160405180910390fd5b610067816100bc565b5050600180546001600160a01b039586166001600160a01b031991821617909155600280549486169482169490941790935560038054928516928416929092179091556004805491909316911617905561018d565b600080546001600160a01b038381166001600160a01b0319831681178455604051919092169283917f8be0079c531659141344cd1fd0a4f28419497f9722a3daafe3b4186f6b6457e09190a35050565b80516001600160a01b038116811461012357600080fd5b919050565b600080600080600060a0868803121561014057600080fd5b6101498661010c565b94506101576020870161010c565b93506101656040870161010c565b92506101736060870161010c565b91506101816080870161010c565b90509295509295909350565b61098b8061019c6000396000f3fe60806040526004361061008a5760003560e01c80639b5055aa116100595780639b5055aa14610116578063b753bfe914610136578063e138818c14610156578063f152c12214610176578063f2fde38b1461019657600080fd5b80634a945f8d146100965780634bf199e9146100b8578063715018a6146100cb5780638da5cb5b146100e057600080fd5b3661009157005b600080fd5b3480156100a257600080fd5b506100b66100b1366004610838565b6101b6565b005b6100b66100c636600461088c565b61020e565b3480156100d757600080fd5b506100b661074d565b3480156100ec57600080fd5b506000546001600160a01b03165b6040516001600160a01b03909116815260200160405180910390f35b34801561012257600080fd5b506004546100fa906001600160a01b031681565b34801561014257600080fd5b506003546100fa906001600160a01b031681565b34801561016257600080fd5b506002546100fa906001600160a01b031681565b34801561018257600080fd5b506001546100fa906001600160a01b031681565b3480156101a257600080fd5b506100b66101b13660046108b8565b610761565b6101be61079f565b600180546001600160a01b039586166001600160a01b0319918216179091556002805494861694821694909417909355600380549285169284169290921790915560048054919093169116179055565b348061027a5760405162461bcd60e51b815260206004820152603060248201527f4665654469737472696275746f723a20416d6f756e74206d757374206265206760448201526f726561746572207468616e207a65726f60801b60648201526084015b60405180910390fd5b6000606461028983601e6108f0565b610293919061090d565b9050600060646102a48460196108f0565b6102ae919061090d565b9050600060646102bf8560196108f0565b6102c9919061090d565b9050600060646102da86600f6108f0565b6102e4919061090d565b9050600081836102f4868861092f565b6102fe919061092f565b610308919061092f565b6103129087610942565b905060008511801561032e57506001546001600160a01b031615155b1561039457600154604051634546346960e11b8152600481018a90526001600160a01b0390911690638a8c68d29087906024016000604051808303818588803b15801561037a57600080fd5b505af115801561038e573d6000803e3d6000fd5b50505050505b6000841180156103ac57506001600160a01b03871615155b15610465576000876001600160a01b03168560405160006040518083038185875af1925050503d80600081146103fe576040519150601f19603f3d011682016040523d82523d6000602084013e610403565b606091505b50509050806104635760405162461bcd60e51b815260206004820152602660248201527f4665654469737472696275746f723a2043757261746f72207061796d656e742060448201526519985a5b195960d21b6064820152608401610271565b505b60008311801561047f57506002546001600160a01b031615155b15610539576002546040516000916001600160a01b03169085908381818185875af1925050503d80600081146104d1576040519150601f19603f3d011682016040523d82523d6000602084013e6104d6565b606091505b50509050806105375760405162461bcd60e51b815260206004820152602760248201527f4665654469737472696275746f723a205472656173757279207061796d656e746044820152660819985a5b195960ca1b6064820152608401610271565b505b60008211801561055357506003546001600160a01b031615155b1561060e576003546040516000916001600160a01b03169084908381818185875af1925050503d80600081146105a5576040519150601f19603f3d011682016040523d82523d6000602084013e6105aa565b606091505b505090508061060c5760405162461bcd60e51b815260206004820152602860248201527f4665654469737472696275746f723a204c6971756964697479207061796d656e6044820152671d0819985a5b195960c21b6064820152608401610271565b505b60008111801561062857506004546001600160a01b031615155b156106e0576004546040516000916001600160a01b03169083908381818185875af1925050503d806000811461067a576040519150601f19603f3d011682016040523d82523d6000602084013e61067f565b606091505b50509050806106de5760405162461bcd60e51b815260206004820152602560248201527f4665654469737472696275746f723a20536166657479207061796d656e742066604482015264185a5b195960da1b6064820152608401610271565b505b6040805187815260208101879052908101859052606081018490526080810183905260a081018290526001600160a01b0388169089907f2ecec3324aafe2f07965fc62f3b0c1206eb1c5146e73ac1a77d28f862af122e29060c00160405180910390a35050505050505050565b61075561079f565b61075f60006107cc565b565b61076961079f565b6001600160a01b03811661079357604051631e4fbdf760e01b815260006004820152602401610271565b61079c816107cc565b50565b6000546001600160a01b0316331461075f5760405163118cdaa760e01b8152336004820152602401610271565b600080546001600160a01b038381166001600160a01b0319831681178455604051919092169283917f8be0079c531659141344cd1fd0a4f28419497f9722a3daafe3b4186f6b6457e09190a35050565b80356001600160a01b038116811461083357600080fd5b919050565b6000806000806080858703121561084e57600080fd5b6108578561081c565b93506108656020860161081c565b92506108736040860161081c565b91506108816060860161081c565b905092959194509250565b6000806040838503121561089f57600080fd5b823591506108af6020840161081c565b90509250929050565b6000602082840312156108ca57600080fd5b6108d38261081c565b9392505050565b634e487b7160e01b600052601160045260246000fd5b8082028115828204841417610907576109076108da565b92915050565b60008261092a57634e487b7160e01b600052601260045260246000fd5b500490565b80820180821115610907576109076108da565b81810381811115610907576109076108da56fea26469706673582212207bccddc8bf8cadf7bb2857ad9e0b343cbc66da1b70321b379d577958a3ea8ab664736f6c63430008140033",
  "linkReferences": {},
  "deployedLinkReferences": {}
}