{
  "_format": "hh-sol-artifact-1",
  "contractName": "MigrationManager",
  "sourceName": "contracts/MigrationManager.sol",
  "abi": [
    {
      "inputs": [
        {
          "internalType": "address",
          "name": "_owner",
          "type": "address"
        }
      ],
      "stateMutability": "nonpayable",
      "type": "constructor"
    },
    {
      "inputs": [
        {
          "internalType": "address",
          "name": "owner",
          "type": "address"
        }
      ],
      "name": "OwnableInvalidOwner",
      "type": "error"
    },
    {
      "inputs": [
        {
          "internalType": "address",
          "name": "account",
          "type": "address"
        }
      ],
      "name": "OwnableUnauthorizedAccount",
      "type": "error"
    },
    {
      "anonymous": false,
      "inputs": [
        {
          "indexed": true,
          "internalType": "address",
          "name": "token",
          "type": "address"
        },
        {
          "indexed": true,
          "internalType": "address",
          "name": "pool",
          "type": "address"
        },
        {
          "indexed": false,
          "internalType": "uint256",
          "name": "bnbAmount",
          "type": "uint256"
        },
        {
          "indexed": false,
          "internalType": "uint256",
          "name": "tokenAmount",
          "type": "uint256"
        }
      ],
      "name": "Migrated",
      "type": "event"
    },
    {
      "anonymous": false,
      "inputs": [
        {
          "indexed": true,
          "internalType": "address",
          "name": "previousOwner",
          "type": "address"
        },
        {
          "indexed": true,
          "internalType": "address",
          "name": "newOwner",
          "type": "address"
        }
      ],
      "name": "OwnershipTransferred",
      "type": "event"
    },
    {
      "inputs": [
        {
          "internalType": "address",
          "name": "",
          "type": "address"
        }
      ],
      "name": "isEligibleForMigration",
      "outputs": [
        {
          "internalType": "bool",
          "name": "",
          "type": "bool"
        }
      ],
      "stateMutability": "pure",
      "type": "function"
    },
    {
      "inputs": [
        {
          "internalType": "address",
          "name": "tokenAddress",
          "type": "address"
        }
      ],
      "name": "migrateToDex",
      "outputs": [
        {
          "internalType": "address",
          "name": "poolAddress",
          "type": "address"
        }
      ],
      "stateMutability": "payable",
      "type": "function"
    },
    {
      "inputs": [
        {
          "internalType": "address",
          "name": "",
          "type": "address"
        }
      ],
      "name": "migrated",
      "outputs": [
        {
          "internalType": "bool",
          "name": "",
          "type": "bool"
        }
      ],
      "stateMutability": "view",
      "type": "function"
    },
    {
      "inputs": [],
      "name": "owner",
      "outputs": [
        {
          "internalType": "address",
          "name": "",
          "type": "address"
        }
      ],
      "stateMutability": "view",
      "type": "function"
    },
    {
      "inputs": [],
      "name": "renounceOwnership",
      "outputs": [],
      "stateMutability": "nonpayable",
      "type": "function"
    },
    {
      "inputs": [
        {
          "internalType": "address",
          "name": "",
          "type": "address"
        }
      ],
      "name": "tokenPools",
      "outputs": [
        {
          "internalType": "address",
          "name": "",
          "type": "address"
        }
      ],
      "stateMutability": "view",
      "type": "function"
    },
    {
      "inputs": [
        {
          "internalType": "address",
          "name": "newOwner",
          "type": "address"
        }
      ],
      "name": "transferOwnership",
      "outputs": [],
      "stateMutability": "nonpayable",
      "type": "function"
    }
  ],
  "bytecode": "0x608060405234801561001057600080fd5b5060405161053c38038061053c83398101604081905261002f916100be565b806001600160a01b03811661005e57604051631e4fbdf760e01b81526000600482015260240160405180910390fd5b6100678161006e565b50506100ee565b600080546001600160a01b038381166001600160a01b0319831681178455604051919092169283917f8be0079c531659141344cd1fd0a4f28419497f9722a3daafe3b4186f6b6457e09190a35050565b6000602082840312156100d057600080fd5b81516001600160a01b03811681146100e757600080fd5b9392505050565b61043f806100fd6000396000f3fe6080604052600436106100705760003560e01c80638da5cb5b1161004e5780638da5cb5b146100f2578063c3d2c3c114610124578063dd210c811461015a578063f2fde38b1461016d57600080fd5b80634ba0a5ee146100755780636800db05146100ba578063715018a6146100db575b600080fd5b34801561008157600080fd5b506100a56100903660046103ae565b60016020526000908152604090205460ff1681565b60405190151581526020015b60405180910390f35b3480156100c657600080fd5b506100a56100d53660046103ae565b50600190565b3480156100e757600080fd5b506100f061018d565b005b3480156100fe57600080fd5b506000546001600160a01b03165b6040516001600160a01b0390911681526020016100b1565b34801561013057600080fd5b5061010c61013f3660046103ae565b6002602052600090815260409020546001600160a01b031681565b61010c6101683660046103ae565b6101a1565b34801561017957600080fd5b506100f06101883660046103ae565b6102f3565b610195610331565b61019f600061035e565b565b60006101ab610331565b6001600160a01b03821660009081526001602052604090205460ff16156102245760405162461bcd60e51b815260206004820152602260248201527f4d6967726174696f6e4d616e616765723a20616c7265616479206d6967726174604482015261195960f21b60648201526084015b60405180910390fd5b506001600160a01b038181166000818152600160208181526040808420805460ff191690931790925581516bffffffffffffffffffffffff19606088901b16818301524260348083019190915283518083039091018152605490910183528051908201208484526002909152912080546001600160a01b031916938216938417905591907ff2ea3ee6d4d03a11390cbbcd09097d9fe2d7efb1b2825c2b509415d2fb95a7ba346102d6816103e86103de565b6040805192835260208301919091520160405180910390a3919050565b6102fb610331565b6001600160a01b03811661032557604051631e4fbdf760e01b81526000600482015260240161021b565b61032e8161035e565b50565b6000546001600160a01b0316331461019f5760405163118cdaa760e01b815233600482015260240161021b565b600080546001600160a01b038381166001600160a01b0319831681178455604051919092169283917f8be0079c531659141344cd1fd0a4f28419497f9722a3daafe3b4186f6b6457e09190a35050565b6000602082840312156103c057600080fd5b81356001600160a01b03811681146103d757600080fd5b9392505050565b808202811582820484141761040357634e487b7160e01b600052601160045260246000fd5b9291505056fea2646970667358221220ff4e5ebb4085ddb3ce934dc218ebdbed050d79ca35e64119dfaa958c1229be3e64736f6c63430008140033",
  "linkReferences": {},
  "deployedLinkReferences": {}
}